{
  "contractName": "MutualTokenFactory",
  "abi": [
    {
      "inputs": [],
      "stateMutability": "nonpayable",
      "type": "constructor"
    },
    {
      "anonymous": false,
      "inputs": [
        {
          "indexed": true,
          "internalType": "address",
          "name": "previousOwner",
          "type": "address"
        },
        {
          "indexed": true,
          "internalType": "address",
          "name": "newOwner",
          "type": "address"
        }
      ],
      "name": "OwnershipTransferred",
      "type": "event"
    },
    {
      "anonymous": false,
      "inputs": [
        {
          "indexed": false,
          "internalType": "address",
          "name": "to",
          "type": "address"
        }
      ],
      "name": "ProposalCreated",
      "type": "event"
    },
    {
      "anonymous": false,
      "inputs": [
        {
          "indexed": false,
          "internalType": "address",
          "name": "to",
          "type": "address"
        }
      ],
      "name": "ProposalDone",
      "type": "event"
    },
    {
      "anonymous": false,
      "inputs": [
        {
          "indexed": false,
          "internalType": "address",
          "name": "to",
          "type": "address"
        }
      ],
      "name": "ProposalReCreated",
      "type": "event"
    },
    {
      "anonymous": false,
      "inputs": [
        {
          "indexed": false,
          "internalType": "address",
          "name": "to",
          "type": "address"
        }
      ],
      "name": "ProposalReject",
      "type": "event"
    },
    {
      "inputs": [],
      "name": "owner",
      "outputs": [
        {
          "internalType": "address",
          "name": "",
          "type": "address"
        }
      ],
      "stateMutability": "view",
      "type": "function",
      "constant": true
    },
    {
      "inputs": [],
      "name": "renounceOwnership",
      "outputs": [],
      "stateMutability": "nonpayable",
      "type": "function"
    },
    {
      "inputs": [
        {
          "internalType": "address",
          "name": "newOwner",
          "type": "address"
        }
      ],
      "name": "transferOwnership",
      "outputs": [],
      "stateMutability": "nonpayable",
      "type": "function"
    },
    {
      "inputs": [
        {
          "internalType": "address",
          "name": "",
          "type": "address"
        }
      ],
      "name": "userJoinedProposal",
      "outputs": [
        {
          "internalType": "address",
          "name": "user",
          "type": "address"
        },
        {
          "internalType": "contract UserActivityProposal",
          "name": "proposal",
          "type": "address"
        },
        {
          "internalType": "bool",
          "name": "exists",
          "type": "bool"
        }
      ],
      "stateMutability": "view",
      "type": "function",
      "constant": true
    },
    {
      "inputs": [
        {
          "internalType": "address",
          "name": "",
          "type": "address"
        }
      ],
      "name": "userStates",
      "outputs": [
        {
          "internalType": "address",
          "name": "user",
          "type": "address"
        },
        {
          "internalType": "string",
          "name": "info",
          "type": "string"
        },
        {
          "internalType": "bool",
          "name": "joined",
          "type": "bool"
        }
      ],
      "stateMutability": "view",
      "type": "function",
      "constant": true
    },
    {
      "inputs": [
        {
          "internalType": "uint256",
          "name": "amount",
          "type": "uint256"
        },
        {
          "internalType": "string",
          "name": "description",
          "type": "string"
        }
      ],
      "name": "join",
      "outputs": [
        {
          "internalType": "address",
          "name": "_proposalAddress",
          "type": "address"
        }
      ],
      "stateMutability": "nonpayable",
      "type": "function"
    },
    {
      "inputs": [
        {
          "internalType": "address",
          "name": "to",
          "type": "address"
        }
      ],
      "name": "accept",
      "outputs": [],
      "stateMutability": "nonpayable",
      "type": "function"
    },
    {
      "inputs": [
        {
          "internalType": "address",
          "name": "to",
          "type": "address"
        }
      ],
      "name": "reject",
      "outputs": [
        {
          "internalType": "enum UserActivityProposal.Stage",
          "name": "stage",
          "type": "uint8"
        }
      ],
      "stateMutability": "nonpayable",
      "type": "function"
    },
    {
      "inputs": [],
      "name": "getTokenAddress",
      "outputs": [
        {
          "internalType": "address",
          "name": "_address",
          "type": "address"
        }
      ],
      "stateMutability": "view",
      "type": "function",
      "constant": true
    },
    {
      "inputs": [],
      "name": "getEscrowTokenAddress",
      "outputs": [
        {
          "internalType": "address",
          "name": "_address",
          "type": "address"
        }
      ],
      "stateMutability": "view",
      "type": "function",
      "constant": true
    }
  ],
  "bytecode": "0x60806040523480156200001157600080fd5b5062000032620000266200014e60201b60201c565b6200015660201b60201c565b60405162000040906200021a565b604051809103906000f0801580156200005d573d6000803e3d6000fd5b50600160006101000a81548173ffffffffffffffffffffffffffffffffffffffff021916908373ffffffffffffffffffffffffffffffffffffffff160217905550604051620000ac9062000228565b604051809103906000f080158015620000c9573d6000803e3d6000fd5b50600260006101000a81548173ffffffffffffffffffffffffffffffffffffffff021916908373ffffffffffffffffffffffffffffffffffffffff1602179055506000600560000160006101000a81548160ff021916908360ff1602179055506001600560000160016101000a81548160ff021916908360ff16021790555062000236565b600033905090565b60008060009054906101000a900473ffffffffffffffffffffffffffffffffffffffff169050816000806101000a81548173ffffffffffffffffffffffffffffffffffffffff021916908373ffffffffffffffffffffffffffffffffffffffff1602179055508173ffffffffffffffffffffffffffffffffffffffff168173ffffffffffffffffffffffffffffffffffffffff167f8be0079c531659141344cd1fd0a4f28419497f9722a3daafe3b4186f6b6457e060405160405180910390a35050565b611bc58062003fc483390190565b611bc58062005b8983390190565b613d7e80620002466000396000f3fe60806040523480156200001157600080fd5b5060043610620000ac5760003560e01c80638bea736e116200006f5780638bea736e14620001855780638da5cb5b14620001a75780639f00592014620001c9578063ab0da5a914620001e9578063f2fde38b146200021f57620000ac565b80630734a58b14620000b15780630ecc535f14620000e957806310fe9ae814620001215780633cfb3d8a1462000143578063715018a61462000179575b600080fd5b620000cf6004803603810190620000c9919062001727565b6200023f565b604051620000e093929190620017f2565b60405180910390f35b62000107600480360381019062000101919062001727565b620002b6565b6040516200011893929190620018d3565b60405180910390f35b6200012b6200039d565b6040516200013a919062001917565b60405180910390f35b6200016160048036038101906200015b9190620019dd565b620003c7565b60405162000170919062001917565b60405180910390f35b620001836200082b565b005b6200018f620008bc565b6040516200019e919062001917565b60405180910390f35b620001b1620008e6565b604051620001c0919062001917565b60405180910390f35b620001e76004803603810190620001e1919062001727565b6200090f565b005b62000207600480360381019062000201919062001727565b62001090565b60405162000216919062001ac7565b60405180910390f35b6200023d600480360381019062000237919062001727565b62001421565b005b60046020528060005260406000206000915090508060000160009054906101000a900473ffffffffffffffffffffffffffffffffffffffff16908060010160009054906101000a900473ffffffffffffffffffffffffffffffffffffffff16908060010160149054906101000a900460ff16905083565b60036020528060005260406000206000915090508060000160009054906101000a900473ffffffffffffffffffffffffffffffffffffffff1690806001018054620003019062001b13565b80601f01602080910402602001604051908101604052809291908181526020018280546200032f9062001b13565b8015620003805780601f10620003545761010080835404028352916020019162000380565b820191906000526020600020905b8154815290600101906020018083116200036257829003601f168201915b5050505050908060020160009054906101000a900460ff16905083565b6000600160009054906101000a900473ffffffffffffffffffffffffffffffffffffffff16905090565b60003373ffffffffffffffffffffffffffffffffffffffff16620003ea620008e6565b73ffffffffffffffffffffffffffffffffffffffff160362000443576040517f08c379a00000000000000000000000000000000000000000000000000000000081526004016200043a9062001b98565b60405180910390fd5b600360003373ffffffffffffffffffffffffffffffffffffffff1673ffffffffffffffffffffffffffffffffffffffff16815260200190815260200160002060020160009054906101000a900460ff1615620004d6576040517f08c379a0000000000000000000000000000000000000000000000000000000008152600401620004cd9062001c0a565b60405180910390fd5b600460003373ffffffffffffffffffffffffffffffffffffffff1673ffffffffffffffffffffffffffffffffffffffff16815260200190815260200160002060010160149054906101000a900460ff161562000632577f299f6b431d20505d54957d6f502e50c91eee5148992dd9510f4bd75e8dd384f8600460003373ffffffffffffffffffffffffffffffffffffffff1673ffffffffffffffffffffffffffffffffffffffff16815260200190815260200160002060010160009054906101000a900473ffffffffffffffffffffffffffffffffffffffff16604051620005bf919062001917565b60405180910390a1600460003373ffffffffffffffffffffffffffffffffffffffff1673ffffffffffffffffffffffffffffffffffffffff16815260200190815260200160002060010160009054906101000a900473ffffffffffffffffffffffffffffffffffffffff16905062000824565b60003384848762000642620008e6565b600560000160009054906101000a900460ff16600560000160019054906101000a900460ff166040516200067690620015f0565b62000688979695949392919062001c9d565b604051809103906000f080158015620006a5573d6000803e3d6000fd5b50905080600460003373ffffffffffffffffffffffffffffffffffffffff1673ffffffffffffffffffffffffffffffffffffffff16815260200190815260200160002060010160006101000a81548173ffffffffffffffffffffffffffffffffffffffff021916908373ffffffffffffffffffffffffffffffffffffffff1602179055506001600460003373ffffffffffffffffffffffffffffffffffffffff1673ffffffffffffffffffffffffffffffffffffffff16815260200190815260200160002060010160146101000a81548160ff0219169083151502179055507f488fccde177d9377f35d8d9a4f0b3462fcc7cdb926a00d3d99630ef1d672a2cd81604051620007b5919062001917565b60405180910390a1600460003373ffffffffffffffffffffffffffffffffffffffff1673ffffffffffffffffffffffffffffffffffffffff16815260200190815260200160002060010160009054906101000a900473ffffffffffffffffffffffffffffffffffffffff169150505b9392505050565b6200083562001524565b73ffffffffffffffffffffffffffffffffffffffff1662000855620008e6565b73ffffffffffffffffffffffffffffffffffffffff1614620008ae576040517f08c379a0000000000000000000000000000000000000000000000000000000008152600401620008a59062001d63565b60405180910390fd5b620008ba60006200152c565b565b6000600260009054906101000a900473ffffffffffffffffffffffffffffffffffffffff16905090565b60008060009054906101000a900473ffffffffffffffffffffffffffffffffffffffff16905090565b62000919620008e6565b73ffffffffffffffffffffffffffffffffffffffff163373ffffffffffffffffffffffffffffffffffffffff1614806200099f5750600360003373ffffffffffffffffffffffffffffffffffffffff1673ffffffffffffffffffffffffffffffffffffffff16815260200190815260200160002060020160009054906101000a900460ff165b620009e1576040517f08c379a0000000000000000000000000000000000000000000000000000000008152600401620009d89062001dfb565b60405180910390fd5b8073ffffffffffffffffffffffffffffffffffffffff163373ffffffffffffffffffffffffffffffffffffffff160362000a52576040517f08c379a000000000000000000000000000000000000000000000000000000000815260040162000a499062001e93565b60405180910390fd5b600460008273ffffffffffffffffffffffffffffffffffffffff1673ffffffffffffffffffffffffffffffffffffffff16815260200190815260200160002060010160149054906101000a900460ff1662000ae4576040517f08c379a000000000000000000000000000000000000000000000000000000000815260040162000adb9062001f05565b60405180910390fd5b6000600460008373ffffffffffffffffffffffffffffffffffffffff1673ffffffffffffffffffffffffffffffffffffffff16815260200190815260200160002060010160009054906101000a900473ffffffffffffffffffffffffffffffffffffffff16905060008173ffffffffffffffffffffffffffffffffffffffff1663bd041c4d3360016040518363ffffffff1660e01b815260040162000b8b92919062001f27565b6020604051808303816000875af115801562000bab573d6000803e3d6000fd5b505050506040513d601f19601f8201168201806040525081019062000bd1919062001f7c565b90506001600281111562000bea5762000be962001a47565b5b81600281111562000c005762000bff62001a47565b5b036200108b57600060028373ffffffffffffffffffffffffffffffffffffffff1663d321fe296040518163ffffffff1660e01b8152600401602060405180830381865afa15801562000c56573d6000803e3d6000fd5b505050506040513d601f19601f8201168201806040525081019062000c7c919062001fc5565b62000c88919062002055565b90506000818473ffffffffffffffffffffffffffffffffffffffff1663d321fe296040518163ffffffff1660e01b8152600401602060405180830381865afa15801562000cd9573d6000803e3d6000fd5b505050506040513d601f19601f8201168201806040525081019062000cff919062001fc5565b62000d0b91906200208d565b9050600160009054906101000a900473ffffffffffffffffffffffffffffffffffffffff1673ffffffffffffffffffffffffffffffffffffffff166340c10f1986846040518363ffffffff1660e01b815260040162000d6c929190620020c8565b600060405180830381600087803b15801562000d8757600080fd5b505af115801562000d9c573d6000803e3d6000fd5b50505050600260009054906101000a900473ffffffffffffffffffffffffffffffffffffffff1673ffffffffffffffffffffffffffffffffffffffff166340c10f1986836040518363ffffffff1660e01b815260040162000dff929190620020c8565b600060405180830381600087803b15801562000e1a57600080fd5b505af115801562000e2f573d6000803e3d6000fd5b505050508373ffffffffffffffffffffffffffffffffffffffff1663832880e76040518163ffffffff1660e01b8152600401602060405180830381865afa15801562000e7f573d6000803e3d6000fd5b505050506040513d601f19601f8201168201806040525081019062000ea591906200210c565b600360008773ffffffffffffffffffffffffffffffffffffffff1673ffffffffffffffffffffffffffffffffffffffff16815260200190815260200160002060000160006101000a81548173ffffffffffffffffffffffffffffffffffffffff021916908373ffffffffffffffffffffffffffffffffffffffff1602179055508373ffffffffffffffffffffffffffffffffffffffff16635a9b0b896040518163ffffffff1660e01b8152600401600060405180830381865afa15801562000f71573d6000803e3d6000fd5b505050506040513d6000823e3d601f19601f8201168201806040525081019062000f9c91906200227b565b600360008773ffffffffffffffffffffffffffffffffffffffff1673ffffffffffffffffffffffffffffffffffffffff168152602001908152602001600020600101908051906020019062000ff3929190620015fe565b506001600360008773ffffffffffffffffffffffffffffffffffffffff1673ffffffffffffffffffffffffffffffffffffffff16815260200190815260200160002060020160006101000a81548160ff0219169083151502179055507f9ef19eae0bc3c3697a33bfce884cc412cef714b4f78e716dfafad37a8dd79a118560405162001080919062001917565b60405180910390a150505b505050565b60006200109c620008e6565b73ffffffffffffffffffffffffffffffffffffffff163373ffffffffffffffffffffffffffffffffffffffff161480620011225750600360003373ffffffffffffffffffffffffffffffffffffffff1673ffffffffffffffffffffffffffffffffffffffff16815260200190815260200160002060020160009054906101000a900460ff165b62001164576040517f08c379a00000000000000000000000000000000000000000000000000000000081526004016200115b9062001dfb565b60405180910390fd5b8173ffffffffffffffffffffffffffffffffffffffff163373ffffffffffffffffffffffffffffffffffffffff1603620011d5576040517f08c379a0000000000000000000000000000000000000000000000000000000008152600401620011cc9062001e93565b60405180910390fd5b600460008373ffffffffffffffffffffffffffffffffffffffff1673ffffffffffffffffffffffffffffffffffffffff16815260200190815260200160002060010160149054906101000a900460ff1662001267576040517f08c379a00000000000000000000000000000000000000000000000000000000081526004016200125e9062001f05565b60405180910390fd5b6000600460008473ffffffffffffffffffffffffffffffffffffffff1673ffffffffffffffffffffffffffffffffffffffff16815260200190815260200160002060010160009054906101000a900473ffffffffffffffffffffffffffffffffffffffff1690508073ffffffffffffffffffffffffffffffffffffffff1663bd041c4d3360006040518363ffffffff1660e01b81526004016200130c92919062001f27565b6020604051808303816000875af11580156200132c573d6000803e3d6000fd5b505050506040513d601f19601f8201168201806040525081019062001352919062001f7c565b91506002808111156200136a576200136962001a47565b5b82600281111562001380576200137f62001a47565b5b036200141b576000600460008573ffffffffffffffffffffffffffffffffffffffff1673ffffffffffffffffffffffffffffffffffffffff16815260200190815260200160002060010160146101000a81548160ff0219169083151502179055507fcf051bc95b4ea55c0479a7233f52bbb7949eddaed918754bf20e0a066eb68dd08360405162001412919062001917565b60405180910390a15b50919050565b6200142b62001524565b73ffffffffffffffffffffffffffffffffffffffff166200144b620008e6565b73ffffffffffffffffffffffffffffffffffffffff1614620014a4576040517f08c379a00000000000000000000000000000000000000000000000000000000081526004016200149b9062001d63565b60405180910390fd5b600073ffffffffffffffffffffffffffffffffffffffff168173ffffffffffffffffffffffffffffffffffffffff160362001516576040517f08c379a00000000000000000000000000000000000000000000000000000000081526004016200150d9062002342565b60405180910390fd5b62001521816200152c565b50565b600033905090565b60008060009054906101000a900473ffffffffffffffffffffffffffffffffffffffff169050816000806101000a81548173ffffffffffffffffffffffffffffffffffffffff021916908373ffffffffffffffffffffffffffffffffffffffff1602179055508173ffffffffffffffffffffffffffffffffffffffff168173ffffffffffffffffffffffffffffffffffffffff167f8be0079c531659141344cd1fd0a4f28419497f9722a3daafe3b4186f6b6457e060405160405180910390a35050565b6119e4806200236583390190565b8280546200160c9062001b13565b90600052602060002090601f0160209004810192826200163057600085556200167c565b82601f106200164b57805160ff19168380011785556200167c565b828001600101855582156200167c579182015b828111156200167b5782518255916020019190600101906200165e565b5b5090506200168b91906200168f565b5090565b5b80821115620016aa57600081600090555060010162001690565b5090565b6000604051905090565b600080fd5b600080fd5b600073ffffffffffffffffffffffffffffffffffffffff82169050919050565b6000620016ef82620016c2565b9050919050565b6200170181620016e2565b81146200170d57600080fd5b50565b6000813590506200172181620016f6565b92915050565b60006020828403121562001740576200173f620016b8565b5b6000620017508482850162001710565b91505092915050565b6200176481620016e2565b82525050565b6000819050919050565b6000620017956200178f6200178984620016c2565b6200176a565b620016c2565b9050919050565b6000620017a98262001774565b9050919050565b6000620017bd826200179c565b9050919050565b620017cf81620017b0565b82525050565b60008115159050919050565b620017ec81620017d5565b82525050565b600060608201905062001809600083018662001759565b620018186020830185620017c4565b620018276040830184620017e1565b949350505050565b600081519050919050565b600082825260208201905092915050565b60005b838110156200186b5780820151818401526020810190506200184e565b838111156200187b576000848401525b50505050565b6000601f19601f8301169050919050565b60006200189f826200182f565b620018ab81856200183a565b9350620018bd8185602086016200184b565b620018c88162001881565b840191505092915050565b6000606082019050620018ea600083018662001759565b8181036020830152620018fe818562001892565b90506200190f6040830184620017e1565b949350505050565b60006020820190506200192e600083018462001759565b92915050565b6000819050919050565b620019498162001934565b81146200195557600080fd5b50565b60008135905062001969816200193e565b92915050565b600080fd5b600080fd5b600080fd5b60008083601f8401126200199757620019966200196f565b5b8235905067ffffffffffffffff811115620019b757620019b662001974565b5b602083019150836001820283011115620019d657620019d562001979565b5b9250929050565b600080600060408486031215620019f957620019f8620016b8565b5b600062001a098682870162001958565b935050602084013567ffffffffffffffff81111562001a2d5762001a2c620016bd565b5b62001a3b868287016200197e565b92509250509250925092565b7f4e487b7100000000000000000000000000000000000000000000000000000000600052602160045260246000fd5b6003811062001a8a5762001a8962001a47565b5b50565b600081905062001a9d8262001a76565b919050565b600062001aaf8262001a8d565b9050919050565b62001ac18162001aa2565b82525050565b600060208201905062001ade600083018462001ab6565b92915050565b7f4e487b7100000000000000000000000000000000000000000000000000000000600052602260045260246000fd5b6000600282049050600182168062001b2c57607f821691505b60208210810362001b425762001b4162001ae4565b5b50919050565b7f6d616e616765722063616e206e6f74206a6f696e000000000000000000000000600082015250565b600062001b806014836200183a565b915062001b8d8262001b48565b602082019050919050565b6000602082019050818103600083015262001bb38162001b71565b9050919050565b7f6163636f756e7420686164206265656e206a6f696e65642e0000000000000000600082015250565b600062001bf26018836200183a565b915062001bff8262001bba565b602082019050919050565b6000602082019050818103600083015262001c258162001be3565b9050919050565b82818337600083830152505050565b600062001c4983856200183a565b935062001c5883858462001c2c565b62001c638362001881565b840190509392505050565b62001c798162001934565b82525050565b600060ff82169050919050565b62001c978162001c7f565b82525050565b600060c08201905062001cb4600083018a62001759565b818103602083015262001cc981888a62001c3b565b905062001cda604083018762001c6e565b62001ce9606083018662001759565b62001cf8608083018562001c8c565b62001d0760a083018462001c8c565b98975050505050505050565b7f4f776e61626c653a2063616c6c6572206973206e6f7420746865206f776e6572600082015250565b600062001d4b6020836200183a565b915062001d588262001d13565b602082019050919050565b6000602082019050818103600083015262001d7e8162001d3c565b9050919050565b7f75736572206d757374206f776e6572206f72207573657220686164206265656e60008201527f206a6f696e65642e000000000000000000000000000000000000000000000000602082015250565b600062001de36028836200183a565b915062001df08262001d85565b604082019050919050565b6000602082019050818103600083015262001e168162001dd4565b9050919050565b7f757365722063616e206f6e6c7920766f746520666f72206f746865722075736560008201527f7273000000000000000000000000000000000000000000000000000000000000602082015250565b600062001e7b6022836200183a565b915062001e888262001e1d565b604082019050919050565b6000602082019050818103600083015262001eae8162001e6c565b9050919050565b7f70726f706f73616c206578697374730000000000000000000000000000000000600082015250565b600062001eed600f836200183a565b915062001efa8262001eb5565b602082019050919050565b6000602082019050818103600083015262001f208162001ede565b9050919050565b600060408201905062001f3e600083018562001759565b62001f4d6020830184620017e1565b9392505050565b6003811062001f6257600080fd5b50565b60008151905062001f768162001f54565b92915050565b60006020828403121562001f955762001f94620016b8565b5b600062001fa58482850162001f65565b91505092915050565b60008151905062001fbf816200193e565b92915050565b60006020828403121562001fde5762001fdd620016b8565b5b600062001fee8482850162001fae565b91505092915050565b7f4e487b7100000000000000000000000000000000000000000000000000000000600052601260045260246000fd5b7f4e487b7100000000000000000000000000000000000000000000000000000000600052601160045260246000fd5b6000620020628262001934565b91506200206f8362001934565b92508262002082576200208162001ff7565b5b828204905092915050565b60006200209a8262001934565b9150620020a78362001934565b925082821015620020bd57620020bc62002026565b5b828203905092915050565b6000604082019050620020df600083018562001759565b620020ee602083018462001c6e565b9392505050565b6000815190506200210681620016f6565b92915050565b600060208284031215620021255762002124620016b8565b5b60006200213584828501620020f5565b91505092915050565b600080fd5b7f4e487b7100000000000000000000000000000000000000000000000000000000600052604160045260246000fd5b6200217d8262001881565b810181811067ffffffffffffffff821117156200219f576200219e62002143565b5b80604052505050565b6000620021b4620016ae565b9050620021c2828262002172565b919050565b600067ffffffffffffffff821115620021e557620021e462002143565b5b620021f08262001881565b9050602081019050919050565b6000620022146200220e84620021c7565b620021a8565b9050828152602081018484840111156200223357620022326200213e565b5b620022408482856200184b565b509392505050565b600082601f83011262002260576200225f6200196f565b5b815162002272848260208601620021fd565b91505092915050565b600060208284031215620022945762002293620016b8565b5b600082015167ffffffffffffffff811115620022b557620022b4620016bd565b5b620022c38482850162002248565b91505092915050565b7f4f776e61626c653a206e6577206f776e657220697320746865207a65726f206160008201527f6464726573730000000000000000000000000000000000000000000000000000602082015250565b60006200232a6026836200183a565b91506200233782620022cc565b604082019050919050565b600060208201905081810360008301526200235d816200231b565b905091905056fe60806040523480156200001157600080fd5b50604051620019e4380380620019e4833981810160405281019062000037919062000560565b620000576200004b6200016960201b60201c565b6200017160201b60201c565b82600160006101000a81548173ffffffffffffffffffffffffffffffffffffffff021916908373ffffffffffffffffffffffffffffffffffffffff16021790555085600260006101000a81548173ffffffffffffffffffffffffffffffffffffffff021916908373ffffffffffffffffffffffffffffffffffffffff1602179055508460039080519060200190620000f192919062000235565b5081600160146101000a81548160ff021916908360ff16021790555080600160156101000a81548160ff021916908360ff160217905550836004819055506000600560006101000a81548160ff021916908360028111156200015857620001576200061b565b5b0217905550505050505050620006ae565b600033905090565b60008060009054906101000a900473ffffffffffffffffffffffffffffffffffffffff169050816000806101000a81548173ffffffffffffffffffffffffffffffffffffffff021916908373ffffffffffffffffffffffffffffffffffffffff1602179055508173ffffffffffffffffffffffffffffffffffffffff168173ffffffffffffffffffffffffffffffffffffffff167f8be0079c531659141344cd1fd0a4f28419497f9722a3daafe3b4186f6b6457e060405160405180910390a35050565b828054620002439062000679565b90600052602060002090601f016020900481019282620002675760008555620002b3565b82601f106200028257805160ff1916838001178555620002b3565b82800160010185558215620002b3579182015b82811115620002b257825182559160200191906001019062000295565b5b509050620002c29190620002c6565b5090565b5b80821115620002e1576000816000905550600101620002c7565b5090565b6000604051905090565b600080fd5b600080fd5b600073ffffffffffffffffffffffffffffffffffffffff82169050919050565b60006200032682620002f9565b9050919050565b620003388162000319565b81146200034457600080fd5b50565b60008151905062000358816200032d565b92915050565b600080fd5b600080fd5b6000601f19601f8301169050919050565b7f4e487b7100000000000000000000000000000000000000000000000000000000600052604160045260246000fd5b620003b38262000368565b810181811067ffffffffffffffff82111715620003d557620003d462000379565b5b80604052505050565b6000620003ea620002e5565b9050620003f88282620003a8565b919050565b600067ffffffffffffffff8211156200041b576200041a62000379565b5b620004268262000368565b9050602081019050919050565b60005b838110156200045357808201518184015260208101905062000436565b8381111562000463576000848401525b50505050565b6000620004806200047a84620003fd565b620003de565b9050828152602081018484840111156200049f576200049e62000363565b5b620004ac84828562000433565b509392505050565b600082601f830112620004cc57620004cb6200035e565b5b8151620004de84826020860162000469565b91505092915050565b6000819050919050565b620004fc81620004e7565b81146200050857600080fd5b50565b6000815190506200051c81620004f1565b92915050565b600060ff82169050919050565b6200053a8162000522565b81146200054657600080fd5b50565b6000815190506200055a816200052f565b92915050565b60008060008060008060c0878903121562000580576200057f620002ef565b5b60006200059089828a0162000347565b965050602087015167ffffffffffffffff811115620005b457620005b3620002f4565b5b620005c289828a01620004b4565b9550506040620005d589828a016200050b565b9450506060620005e889828a0162000347565b9350506080620005fb89828a0162000549565b92505060a06200060e89828a0162000549565b9150509295509295509295565b7f4e487b7100000000000000000000000000000000000000000000000000000000600052602160045260246000fd5b7f4e487b7100000000000000000000000000000000000000000000000000000000600052602260045260246000fd5b600060028204905060018216806200069257607f821691505b602082108103620006a857620006a76200064a565b5b50919050565b61132680620006be6000396000f3fe608060405234801561001057600080fd5b50600436106101165760003560e01c806386c1e7cb116100a2578063c040e6b811610071578063c040e6b81461029f578063c527290d146102bd578063d321fe29146102db578063f2fde38b146102f9578063fcaa76641461031557610116565b806386c1e7cb146102155780638da5cb5b14610233578063aa8c217c14610251578063bd041c4d1461026f57610116565b806353b60897116100e957806353b60897146101935780635a9b0b89146101b1578063644cd3c1146101cf578063715018a6146101ed578063832880e7146101f757610116565b806306fdde031461011b5780631b86bede14610139578063409e1f85146101575780634f8632ba14610175575b600080fd5b610123610333565b6040516101309190610dd9565b60405180910390f35b6101416103c1565b60405161014e9190610e17565b60405180910390f35b61015f6103d4565b60405161016c9190610e17565b60405180910390f35b61017d6103e7565b60405161018a9190610e73565b60405180910390f35b61019b61040d565b6040516101a89190610ea9565b60405180910390f35b6101b9610420565b6040516101c69190610dd9565b60405180910390f35b6101d76104b2565b6040516101e49190610e17565b60405180910390f35b6101f56104c5565b005b6101ff61054d565b60405161020c9190610e73565b60405180910390f35b61021d610577565b60405161022a9190610ea9565b60405180910390f35b61023b61058a565b6040516102489190610e73565b60405180910390f35b6102596105b3565b6040516102669190610edd565b60405180910390f35b61028960048036038101906102849190610f55565b6105b9565b604051610296919061100c565b60405180910390f35b6102a7610b36565b6040516102b4919061100c565b60405180910390f35b6102c5610b49565b6040516102d29190610e17565b60405180910390f35b6102e3610b5c565b6040516102f09190610edd565b60405180910390f35b610313600480360381019061030e9190611027565b610b66565b005b61031d610c5d565b60405161032a919061100c565b60405180910390f35b6003805461034090611083565b80601f016020809104026020016040519081016040528092919081815260200182805461036c90611083565b80156103b95780601f1061038e576101008083540402835291602001916103b9565b820191906000526020600020905b81548152906001019060200180831161039c57829003601f168201915b505050505081565b600560049054906101000a900460ff1681565b600160149054906101000a900460ff1681565b600260009054906101000a900473ffffffffffffffffffffffffffffffffffffffff1681565b600560029054906101000a900460ff1681565b60606003805461042f90611083565b80601f016020809104026020016040519081016040528092919081815260200182805461045b90611083565b80156104a85780601f1061047d576101008083540402835291602001916104a8565b820191906000526020600020905b81548152906001019060200180831161048b57829003601f168201915b5050505050905090565b600160159054906101000a900460ff1681565b6104cd610c74565b73ffffffffffffffffffffffffffffffffffffffff166104eb61058a565b73ffffffffffffffffffffffffffffffffffffffff1614610541576040517f08c379a000000000000000000000000000000000000000000000000000000000815260040161053890611100565b60405180910390fd5b61054b6000610c7c565b565b6000600260009054906101000a900473ffffffffffffffffffffffffffffffffffffffff16905090565b600560019054906101000a900460ff1681565b60008060009054906101000a900473ffffffffffffffffffffffffffffffffffffffff16905090565b60045481565b60006105c3610c74565b73ffffffffffffffffffffffffffffffffffffffff166105e161058a565b73ffffffffffffffffffffffffffffffffffffffff1614610637576040517f08c379a000000000000000000000000000000000000000000000000000000000815260040161062e90611100565b60405180910390fd5b600080600281111561064c5761064b610f95565b5b600560009054906101000a900460ff16600281111561066e5761066d610f95565b5b146106ae576040517f08c379a00000000000000000000000000000000000000000000000000000000081526004016106a59061116c565b60405180910390fd5b600660008573ffffffffffffffffffffffffffffffffffffffff1673ffffffffffffffffffffffffffffffffffffffff16815260200190815260200160002060000160149054906101000a900460ff1615806107575750600160009054906101000a900473ffffffffffffffffffffffffffffffffffffffff1673ffffffffffffffffffffffffffffffffffffffff168473ffffffffffffffffffffffffffffffffffffffff16145b610796576040517f08c379a000000000000000000000000000000000000000000000000000000000815260040161078d906111d8565b60405180910390fd5b600160009054906101000a900473ffffffffffffffffffffffffffffffffffffffff1673ffffffffffffffffffffffffffffffffffffffff168473ffffffffffffffffffffffffffffffffffffffff1603610825576001600560026101000a81548160ff02191690831515021790555082600560016101000a81548160ff021916908315150217905550610a0a565b821561091c576001600560039054906101000a900460ff166108479190611227565b600560036101000a81548160ff021916908360ff1602179055506001600660008673ffffffffffffffffffffffffffffffffffffffff1673ffffffffffffffffffffffffffffffffffffffff16815260200190815260200160002060000160146101000a81548160ff0219169083151502179055506001600660008673ffffffffffffffffffffffffffffffffffffffff1673ffffffffffffffffffffffffffffffffffffffff16815260200190815260200160002060000160156101000a81548160ff021916908315150217905550610a09565b6001600560049054906101000a900460ff166109389190611227565b600560036101000a81548160ff021916908360ff1602179055506001600660008673ffffffffffffffffffffffffffffffffffffffff1673ffffffffffffffffffffffffffffffffffffffff16815260200190815260200160002060000160146101000a81548160ff0219169083151502179055506000600660008673ffffffffffffffffffffffffffffffffffffffff1673ffffffffffffffffffffffffffffffffffffffff16815260200190815260200160002060000160156101000a81548160ff0219169083151502179055505b5b600560029054906101000a900460ff168015610a325750600560019054906101000a900460ff165b8015610a625750600160149054906101000a900460ff1660ff16600560039054906101000a900460ff1660ff1610155b15610a93576001600560006101000a81548160ff02191690836002811115610a8d57610a8c610f95565b5b02179055505b600560029054906101000a900460ff168015610abc5750600560019054906101000a900460ff16155b8015610aec5750600160159054906101000a900460ff1660ff16600560049054906101000a900460ff1660ff1610155b15610b1d576002600560006101000a81548160ff02191690836002811115610b1757610b16610f95565b5b02179055505b600560009054906101000a900460ff1691505092915050565b600560009054906101000a900460ff1681565b600560039054906101000a900460ff1681565b6000600454905090565b610b6e610c74565b73ffffffffffffffffffffffffffffffffffffffff16610b8c61058a565b73ffffffffffffffffffffffffffffffffffffffff1614610be2576040517f08c379a0000000000000000000000000000000000000000000000000000000008152600401610bd990611100565b60405180910390fd5b600073ffffffffffffffffffffffffffffffffffffffff168173ffffffffffffffffffffffffffffffffffffffff1603610c51576040517f08c379a0000000000000000000000000000000000000000000000000000000008152600401610c48906112d0565b60405180910390fd5b610c5a81610c7c565b50565b6000600560009054906101000a900460ff16905090565b600033905090565b60008060009054906101000a900473ffffffffffffffffffffffffffffffffffffffff169050816000806101000a81548173ffffffffffffffffffffffffffffffffffffffff021916908373ffffffffffffffffffffffffffffffffffffffff1602179055508173ffffffffffffffffffffffffffffffffffffffff168173ffffffffffffffffffffffffffffffffffffffff167f8be0079c531659141344cd1fd0a4f28419497f9722a3daafe3b4186f6b6457e060405160405180910390a35050565b600081519050919050565b600082825260208201905092915050565b60005b83811015610d7a578082015181840152602081019050610d5f565b83811115610d89576000848401525b50505050565b6000601f19601f8301169050919050565b6000610dab82610d40565b610db58185610d4b565b9350610dc5818560208601610d5c565b610dce81610d8f565b840191505092915050565b60006020820190508181036000830152610df38184610da0565b905092915050565b600060ff82169050919050565b610e1181610dfb565b82525050565b6000602082019050610e2c6000830184610e08565b92915050565b600073ffffffffffffffffffffffffffffffffffffffff82169050919050565b6000610e5d82610e32565b9050919050565b610e6d81610e52565b82525050565b6000602082019050610e886000830184610e64565b92915050565b60008115159050919050565b610ea381610e8e565b82525050565b6000602082019050610ebe6000830184610e9a565b92915050565b6000819050919050565b610ed781610ec4565b82525050565b6000602082019050610ef26000830184610ece565b92915050565b600080fd5b610f0681610e52565b8114610f1157600080fd5b50565b600081359050610f2381610efd565b92915050565b610f3281610e8e565b8114610f3d57600080fd5b50565b600081359050610f4f81610f29565b92915050565b60008060408385031215610f6c57610f6b610ef8565b5b6000610f7a85828601610f14565b9250506020610f8b85828601610f40565b9150509250929050565b7f4e487b7100000000000000000000000000000000000000000000000000000000600052602160045260246000fd5b60038110610fd557610fd4610f95565b5b50565b6000819050610fe682610fc4565b919050565b6000610ff682610fd8565b9050919050565b61100681610feb565b82525050565b60006020820190506110216000830184610ffd565b92915050565b60006020828403121561103d5761103c610ef8565b5b600061104b84828501610f14565b91505092915050565b7f4e487b7100000000000000000000000000000000000000000000000000000000600052602260045260246000fd5b6000600282049050600182168061109b57607f821691505b6020821081036110ae576110ad611054565b5b50919050565b7f4f776e61626c653a2063616c6c6572206973206e6f7420746865206f776e6572600082015250565b60006110ea602083610d4b565b91506110f5826110b4565b602082019050919050565b60006020820190508181036000830152611119816110dd565b9050919050565b7f63757272656e742073746167652063616e206e6f74206f706572617465000000600082015250565b6000611156601d83610d4b565b915061116182611120565b602082019050919050565b6000602082019050818103600083015261118581611149565b9050919050565b7f7573657220686173206265656e20766f7465642e000000000000000000000000600082015250565b60006111c2601483610d4b565b91506111cd8261118c565b602082019050919050565b600060208201905081810360008301526111f1816111b5565b9050919050565b7f4e487b7100000000000000000000000000000000000000000000000000000000600052601160045260246000fd5b600061123282610dfb565b915061123d83610dfb565b92508260ff03821115611253576112526111f8565b5b828201905092915050565b7f4f776e61626c653a206e6577206f776e657220697320746865207a65726f206160008201527f6464726573730000000000000000000000000000000000000000000000000000602082015250565b60006112ba602683610d4b565b91506112c58261125e565b604082019050919050565b600060208201905081810360008301526112e9816112ad565b905091905056fea2646970667358221220ee6065086945257695c7cbf00118d055527604cba98683a52b7a2aecc7a703be64736f6c634300080d0033a2646970667358221220eee18eb763efd73de8f326362a02e1a95aff69c70865402fd1121e1539e1d31264736f6c634300080d003360806040523480156200001157600080fd5b506040518060400160405280600b81526020017f4d757475616c546f6b656e0000000000000000000000000000000000000000008152506040518060400160405280600281526020017f4d56000000000000000000000000000000000000000000000000000000000000815250816003908051906020019062000096929190620001a6565b508060049080519060200190620000af929190620001a6565b505050620000d2620000c6620000d860201b60201c565b620000e060201b60201c565b620002ba565b600033905090565b6000600560009054906101000a900473ffffffffffffffffffffffffffffffffffffffff16905081600560006101000a81548173ffffffffffffffffffffffffffffffffffffffff021916908373ffffffffffffffffffffffffffffffffffffffff1602179055508173ffffffffffffffffffffffffffffffffffffffff168173ffffffffffffffffffffffffffffffffffffffff167f8be0079c531659141344cd1fd0a4f28419497f9722a3daafe3b4186f6b6457e060405160405180910390a35050565b828054620001b49062000285565b90600052602060002090601f016020900481019282620001d8576000855562000224565b82601f10620001f357805160ff191683800117855562000224565b8280016001018555821562000224579182015b828111156200022357825182559160200191906001019062000206565b5b50905062000233919062000237565b5090565b5b808211156200025257600081600090555060010162000238565b5090565b7f4e487b7100000000000000000000000000000000000000000000000000000000600052602260045260246000fd5b600060028204905060018216806200029e57607f821691505b602082108103620002b457620002b362000256565b5b50919050565b6118fb80620002ca6000396000f3fe608060405234801561001057600080fd5b50600436106100f55760003560e01c806370a0823111610097578063a457c2d711610066578063a457c2d714610276578063a9059cbb146102a6578063dd62ed3e146102d6578063f2fde38b14610306576100f5565b806370a0823114610200578063715018a6146102305780638da5cb5b1461023a57806395d89b4114610258576100f5565b806323b872dd116100d357806323b872dd14610166578063313ce5671461019657806339509351146101b457806340c10f19146101e4576100f5565b806306fdde03146100fa578063095ea7b31461011857806318160ddd14610148575b600080fd5b610102610322565b60405161010f9190611022565b60405180910390f35b610132600480360381019061012d91906110dd565b6103b4565b60405161013f9190611138565b60405180910390f35b6101506103d7565b60405161015d9190611162565b60405180910390f35b610180600480360381019061017b919061117d565b6103e1565b60405161018d9190611138565b60405180910390f35b61019e610410565b6040516101ab91906111ec565b60405180910390f35b6101ce60048036038101906101c991906110dd565b610419565b6040516101db9190611138565b60405180910390f35b6101fe60048036038101906101f991906110dd565b610450565b005b61021a60048036038101906102159190611207565b6104da565b6040516102279190611162565b60405180910390f35b610238610522565b005b6102426105aa565b60405161024f9190611243565b60405180910390f35b6102606105d4565b60405161026d9190611022565b60405180910390f35b610290600480360381019061028b91906110dd565b610666565b60405161029d9190611138565b60405180910390f35b6102c060048036038101906102bb91906110dd565b6106dd565b6040516102cd9190611138565b60405180910390f35b6102f060048036038101906102eb919061125e565b610700565b6040516102fd9190611162565b60405180910390f35b610320600480360381019061031b9190611207565b610787565b005b606060038054610331906112cd565b80601f016020809104026020016040519081016040528092919081815260200182805461035d906112cd565b80156103aa5780601f1061037f576101008083540402835291602001916103aa565b820191906000526020600020905b81548152906001019060200180831161038d57829003601f168201915b5050505050905090565b6000806103bf61087e565b90506103cc818585610886565b600191505092915050565b6000600254905090565b6000806103ec61087e565b90506103f9858285610a4f565b610404858585610adb565b60019150509392505050565b60006012905090565b60008061042461087e565b90506104458185856104368589610700565b610440919061132d565b610886565b600191505092915050565b61045861087e565b73ffffffffffffffffffffffffffffffffffffffff166104766105aa565b73ffffffffffffffffffffffffffffffffffffffff16146104cc576040517f08c379a00000000000000000000000000000000000000000000000000000000081526004016104c3906113cf565b60405180910390fd5b6104d68282610d5a565b5050565b60008060008373ffffffffffffffffffffffffffffffffffffffff1673ffffffffffffffffffffffffffffffffffffffff168152602001908152602001600020549050919050565b61052a61087e565b73ffffffffffffffffffffffffffffffffffffffff166105486105aa565b73ffffffffffffffffffffffffffffffffffffffff161461059e576040517f08c379a0000000000000000000000000000000000000000000000000000000008152600401610595906113cf565b60405180910390fd5b6105a86000610eb9565b565b6000600560009054906101000a900473ffffffffffffffffffffffffffffffffffffffff16905090565b6060600480546105e3906112cd565b80601f016020809104026020016040519081016040528092919081815260200182805461060f906112cd565b801561065c5780601f106106315761010080835404028352916020019161065c565b820191906000526020600020905b81548152906001019060200180831161063f57829003601f168201915b5050505050905090565b60008061067161087e565b9050600061067f8286610700565b9050838110156106c4576040517f08c379a00000000000000000000000000000000000000000000000000000000081526004016106bb90611461565b60405180910390fd5b6106d18286868403610886565b60019250505092915050565b6000806106e861087e565b90506106f5818585610adb565b600191505092915050565b6000600160008473ffffffffffffffffffffffffffffffffffffffff1673ffffffffffffffffffffffffffffffffffffffff16815260200190815260200160002060008373ffffffffffffffffffffffffffffffffffffffff1673ffffffffffffffffffffffffffffffffffffffff16815260200190815260200160002054905092915050565b61078f61087e565b73ffffffffffffffffffffffffffffffffffffffff166107ad6105aa565b73ffffffffffffffffffffffffffffffffffffffff1614610803576040517f08c379a00000000000000000000000000000000000000000000000000000000081526004016107fa906113cf565b60405180910390fd5b600073ffffffffffffffffffffffffffffffffffffffff168173ffffffffffffffffffffffffffffffffffffffff1603610872576040517f08c379a0000000000000000000000000000000000000000000000000000000008152600401610869906114f3565b60405180910390fd5b61087b81610eb9565b50565b600033905090565b600073ffffffffffffffffffffffffffffffffffffffff168373ffffffffffffffffffffffffffffffffffffffff16036108f5576040517f08c379a00000000000000000000000000000000000000000000000000000000081526004016108ec90611585565b60405180910390fd5b600073ffffffffffffffffffffffffffffffffffffffff168273ffffffffffffffffffffffffffffffffffffffff1603610964576040517f08c379a000000000000000000000000000000000000000000000000000000000815260040161095b90611617565b60405180910390fd5b80600160008573ffffffffffffffffffffffffffffffffffffffff1673ffffffffffffffffffffffffffffffffffffffff16815260200190815260200160002060008473ffffffffffffffffffffffffffffffffffffffff1673ffffffffffffffffffffffffffffffffffffffff168152602001908152602001600020819055508173ffffffffffffffffffffffffffffffffffffffff168373ffffffffffffffffffffffffffffffffffffffff167f8c5be1e5ebec7d5bd14f71427d1e84f3dd0314c0f7b2291e5b200ac8c7c3b92583604051610a429190611162565b60405180910390a3505050565b6000610a5b8484610700565b90507fffffffffffffffffffffffffffffffffffffffffffffffffffffffffffffffff8114610ad55781811015610ac7576040517f08c379a0000000000000000000000000000000000000000000000000000000008152600401610abe90611683565b60405180910390fd5b610ad48484848403610886565b5b50505050565b600073ffffffffffffffffffffffffffffffffffffffff168373ffffffffffffffffffffffffffffffffffffffff1603610b4a576040517f08c379a0000000000000000000000000000000000000000000000000000000008152600401610b4190611715565b60405180910390fd5b600073ffffffffffffffffffffffffffffffffffffffff168273ffffffffffffffffffffffffffffffffffffffff1603610bb9576040517f08c379a0000000000000000000000000000000000000000000000000000000008152600401610bb0906117a7565b60405180910390fd5b610bc4838383610f7f565b60008060008573ffffffffffffffffffffffffffffffffffffffff1673ffffffffffffffffffffffffffffffffffffffff16815260200190815260200160002054905081811015610c4a576040517f08c379a0000000000000000000000000000000000000000000000000000000008152600401610c4190611839565b60405180910390fd5b8181036000808673ffffffffffffffffffffffffffffffffffffffff1673ffffffffffffffffffffffffffffffffffffffff16815260200190815260200160002081905550816000808573ffffffffffffffffffffffffffffffffffffffff1673ffffffffffffffffffffffffffffffffffffffff1681526020019081526020016000206000828254610cdd919061132d565b925050819055508273ffffffffffffffffffffffffffffffffffffffff168473ffffffffffffffffffffffffffffffffffffffff167fddf252ad1be2c89b69c2b068fc378daa952ba7f163c4a11628f55a4df523b3ef84604051610d419190611162565b60405180910390a3610d54848484610f84565b50505050565b600073ffffffffffffffffffffffffffffffffffffffff168273ffffffffffffffffffffffffffffffffffffffff1603610dc9576040517f08c379a0000000000000000000000000000000000000000000000000000000008152600401610dc0906118a5565b60405180910390fd5b610dd560008383610f7f565b8060026000828254610de7919061132d565b92505081905550806000808473ffffffffffffffffffffffffffffffffffffffff1673ffffffffffffffffffffffffffffffffffffffff1681526020019081526020016000206000828254610e3c919061132d565b925050819055508173ffffffffffffffffffffffffffffffffffffffff16600073ffffffffffffffffffffffffffffffffffffffff167fddf252ad1be2c89b69c2b068fc378daa952ba7f163c4a11628f55a4df523b3ef83604051610ea19190611162565b60405180910390a3610eb560008383610f84565b5050565b6000600560009054906101000a900473ffffffffffffffffffffffffffffffffffffffff16905081600560006101000a81548173ffffffffffffffffffffffffffffffffffffffff021916908373ffffffffffffffffffffffffffffffffffffffff1602179055508173ffffffffffffffffffffffffffffffffffffffff168173ffffffffffffffffffffffffffffffffffffffff167f8be0079c531659141344cd1fd0a4f28419497f9722a3daafe3b4186f6b6457e060405160405180910390a35050565b505050565b505050565b600081519050919050565b600082825260208201905092915050565b60005b83811015610fc3578082015181840152602081019050610fa8565b83811115610fd2576000848401525b50505050565b6000601f19601f8301169050919050565b6000610ff482610f89565b610ffe8185610f94565b935061100e818560208601610fa5565b61101781610fd8565b840191505092915050565b6000602082019050818103600083015261103c8184610fe9565b905092915050565b600080fd5b600073ffffffffffffffffffffffffffffffffffffffff82169050919050565b600061107482611049565b9050919050565b61108481611069565b811461108f57600080fd5b50565b6000813590506110a18161107b565b92915050565b6000819050919050565b6110ba816110a7565b81146110c557600080fd5b50565b6000813590506110d7816110b1565b92915050565b600080604083850312156110f4576110f3611044565b5b600061110285828601611092565b9250506020611113858286016110c8565b9150509250929050565b60008115159050919050565b6111328161111d565b82525050565b600060208201905061114d6000830184611129565b92915050565b61115c816110a7565b82525050565b60006020820190506111776000830184611153565b92915050565b60008060006060848603121561119657611195611044565b5b60006111a486828701611092565b93505060206111b586828701611092565b92505060406111c6868287016110c8565b9150509250925092565b600060ff82169050919050565b6111e6816111d0565b82525050565b600060208201905061120160008301846111dd565b92915050565b60006020828403121561121d5761121c611044565b5b600061122b84828501611092565b91505092915050565b61123d81611069565b82525050565b60006020820190506112586000830184611234565b92915050565b6000806040838503121561127557611274611044565b5b600061128385828601611092565b925050602061129485828601611092565b9150509250929050565b7f4e487b7100000000000000000000000000000000000000000000000000000000600052602260045260246000fd5b600060028204905060018216806112e557607f821691505b6020821081036112f8576112f761129e565b5b50919050565b7f4e487b7100000000000000000000000000000000000000000000000000000000600052601160045260246000fd5b6000611338826110a7565b9150611343836110a7565b9250827fffffffffffffffffffffffffffffffffffffffffffffffffffffffffffffffff03821115611378576113776112fe565b5b828201905092915050565b7f4f776e61626c653a2063616c6c6572206973206e6f7420746865206f776e6572600082015250565b60006113b9602083610f94565b91506113c482611383565b602082019050919050565b600060208201905081810360008301526113e8816113ac565b9050919050565b7f45524332303a2064656372656173656420616c6c6f77616e63652062656c6f7760008201527f207a65726f000000000000000000000000000000000000000000000000000000602082015250565b600061144b602583610f94565b9150611456826113ef565b604082019050919050565b6000602082019050818103600083015261147a8161143e565b9050919050565b7f4f776e61626c653a206e6577206f776e657220697320746865207a65726f206160008201527f6464726573730000000000000000000000000000000000000000000000000000602082015250565b60006114dd602683610f94565b91506114e882611481565b604082019050919050565b6000602082019050818103600083015261150c816114d0565b9050919050565b7f45524332303a20617070726f76652066726f6d20746865207a65726f2061646460008201527f7265737300000000000000000000000000000000000000000000000000000000602082015250565b600061156f602483610f94565b915061157a82611513565b604082019050919050565b6000602082019050818103600083015261159e81611562565b9050919050565b7f45524332303a20617070726f766520746f20746865207a65726f20616464726560008201527f7373000000000000000000000000000000000000000000000000000000000000602082015250565b6000611601602283610f94565b915061160c826115a5565b604082019050919050565b60006020820190508181036000830152611630816115f4565b9050919050565b7f45524332303a20696e73756666696369656e7420616c6c6f77616e6365000000600082015250565b600061166d601d83610f94565b915061167882611637565b602082019050919050565b6000602082019050818103600083015261169c81611660565b9050919050565b7f45524332303a207472616e736665722066726f6d20746865207a65726f20616460008201527f6472657373000000000000000000000000000000000000000000000000000000602082015250565b60006116ff602583610f94565b915061170a826116a3565b604082019050919050565b6000602082019050818103600083015261172e816116f2565b9050919050565b7f45524332303a207472616e7366657220746f20746865207a65726f206164647260008201527f6573730000000000000000000000000000000000000000000000000000000000602082015250565b6000611791602383610f94565b915061179c82611735565b604082019050919050565b600060208201905081810360008301526117c081611784565b9050919050565b7f45524332303a207472616e7366657220616d6f756e742065786365656473206260008201527f616c616e63650000000000000000000000000000000000000000000000000000602082015250565b6000611823602683610f94565b915061182e826117c7565b604082019050919050565b6000602082019050818103600083015261185281611816565b9050919050565b7f45524332303a206d696e7420746f20746865207a65726f206164647265737300600082015250565b600061188f601f83610f94565b915061189a82611859565b602082019050919050565b600060208201905081810360008301526118be81611882565b905091905056fea2646970667358221220d38553087eaaeb03e934f32b84661fd4b73b5c04f9b35b33439bc0668f87d71c64736f6c634300080d003360806040523480156200001157600080fd5b506040518060400160405280601181526020017f4d757475616c457363726f77546f6b656e0000000000000000000000000000008152506040518060400160405280600381526020017f4d45560000000000000000000000000000000000000000000000000000000000815250816003908051906020019062000096929190620001a6565b508060049080519060200190620000af929190620001a6565b505050620000d2620000c6620000d860201b60201c565b620000e060201b60201c565b620002ba565b600033905090565b6000600560009054906101000a900473ffffffffffffffffffffffffffffffffffffffff16905081600560006101000a81548173ffffffffffffffffffffffffffffffffffffffff021916908373ffffffffffffffffffffffffffffffffffffffff1602179055508173ffffffffffffffffffffffffffffffffffffffff168173ffffffffffffffffffffffffffffffffffffffff167f8be0079c531659141344cd1fd0a4f28419497f9722a3daafe3b4186f6b6457e060405160405180910390a35050565b828054620001b49062000285565b90600052602060002090601f016020900481019282620001d8576000855562000224565b82601f10620001f357805160ff191683800117855562000224565b8280016001018555821562000224579182015b828111156200022357825182559160200191906001019062000206565b5b50905062000233919062000237565b5090565b5b808211156200025257600081600090555060010162000238565b5090565b7f4e487b7100000000000000000000000000000000000000000000000000000000600052602260045260246000fd5b600060028204905060018216806200029e57607f821691505b602082108103620002b457620002b362000256565b5b50919050565b6118fb80620002ca6000396000f3fe608060405234801561001057600080fd5b50600436106100f55760003560e01c806370a0823111610097578063a457c2d711610066578063a457c2d714610276578063a9059cbb146102a6578063dd62ed3e146102d6578063f2fde38b14610306576100f5565b806370a0823114610200578063715018a6146102305780638da5cb5b1461023a57806395d89b4114610258576100f5565b806323b872dd116100d357806323b872dd14610166578063313ce5671461019657806339509351146101b457806340c10f19146101e4576100f5565b806306fdde03146100fa578063095ea7b31461011857806318160ddd14610148575b600080fd5b610102610322565b60405161010f9190611022565b60405180910390f35b610132600480360381019061012d91906110dd565b6103b4565b60405161013f9190611138565b60405180910390f35b6101506103d7565b60405161015d9190611162565b60405180910390f35b610180600480360381019061017b919061117d565b6103e1565b60405161018d9190611138565b60405180910390f35b61019e610410565b6040516101ab91906111ec565b60405180910390f35b6101ce60048036038101906101c991906110dd565b610419565b6040516101db9190611138565b60405180910390f35b6101fe60048036038101906101f991906110dd565b610450565b005b61021a60048036038101906102159190611207565b6104da565b6040516102279190611162565b60405180910390f35b610238610522565b005b6102426105aa565b60405161024f9190611243565b60405180910390f35b6102606105d4565b60405161026d9190611022565b60405180910390f35b610290600480360381019061028b91906110dd565b610666565b60405161029d9190611138565b60405180910390f35b6102c060048036038101906102bb91906110dd565b6106dd565b6040516102cd9190611138565b60405180910390f35b6102f060048036038101906102eb919061125e565b610700565b6040516102fd9190611162565b60405180910390f35b610320600480360381019061031b9190611207565b610787565b005b606060038054610331906112cd565b80601f016020809104026020016040519081016040528092919081815260200182805461035d906112cd565b80156103aa5780601f1061037f576101008083540402835291602001916103aa565b820191906000526020600020905b81548152906001019060200180831161038d57829003601f168201915b5050505050905090565b6000806103bf61087e565b90506103cc818585610886565b600191505092915050565b6000600254905090565b6000806103ec61087e565b90506103f9858285610a4f565b610404858585610adb565b60019150509392505050565b60006012905090565b60008061042461087e565b90506104458185856104368589610700565b610440919061132d565b610886565b600191505092915050565b61045861087e565b73ffffffffffffffffffffffffffffffffffffffff166104766105aa565b73ffffffffffffffffffffffffffffffffffffffff16146104cc576040517f08c379a00000000000000000000000000000000000000000000000000000000081526004016104c3906113cf565b60405180910390fd5b6104d68282610d5a565b5050565b60008060008373ffffffffffffffffffffffffffffffffffffffff1673ffffffffffffffffffffffffffffffffffffffff168152602001908152602001600020549050919050565b61052a61087e565b73ffffffffffffffffffffffffffffffffffffffff166105486105aa565b73ffffffffffffffffffffffffffffffffffffffff161461059e576040517f08c379a0000000000000000000000000000000000000000000000000000000008152600401610595906113cf565b60405180910390fd5b6105a86000610eb9565b565b6000600560009054906101000a900473ffffffffffffffffffffffffffffffffffffffff16905090565b6060600480546105e3906112cd565b80601f016020809104026020016040519081016040528092919081815260200182805461060f906112cd565b801561065c5780601f106106315761010080835404028352916020019161065c565b820191906000526020600020905b81548152906001019060200180831161063f57829003601f168201915b5050505050905090565b60008061067161087e565b9050600061067f8286610700565b9050838110156106c4576040517f08c379a00000000000000000000000000000000000000000000000000000000081526004016106bb90611461565b60405180910390fd5b6106d18286868403610886565b60019250505092915050565b6000806106e861087e565b90506106f5818585610adb565b600191505092915050565b6000600160008473ffffffffffffffffffffffffffffffffffffffff1673ffffffffffffffffffffffffffffffffffffffff16815260200190815260200160002060008373ffffffffffffffffffffffffffffffffffffffff1673ffffffffffffffffffffffffffffffffffffffff16815260200190815260200160002054905092915050565b61078f61087e565b73ffffffffffffffffffffffffffffffffffffffff166107ad6105aa565b73ffffffffffffffffffffffffffffffffffffffff1614610803576040517f08c379a00000000000000000000000000000000000000000000000000000000081526004016107fa906113cf565b60405180910390fd5b600073ffffffffffffffffffffffffffffffffffffffff168173ffffffffffffffffffffffffffffffffffffffff1603610872576040517f08c379a0000000000000000000000000000000000000000000000000000000008152600401610869906114f3565b60405180910390fd5b61087b81610eb9565b50565b600033905090565b600073ffffffffffffffffffffffffffffffffffffffff168373ffffffffffffffffffffffffffffffffffffffff16036108f5576040517f08c379a00000000000000000000000000000000000000000000000000000000081526004016108ec90611585565b60405180910390fd5b600073ffffffffffffffffffffffffffffffffffffffff168273ffffffffffffffffffffffffffffffffffffffff1603610964576040517f08c379a000000000000000000000000000000000000000000000000000000000815260040161095b90611617565b60405180910390fd5b80600160008573ffffffffffffffffffffffffffffffffffffffff1673ffffffffffffffffffffffffffffffffffffffff16815260200190815260200160002060008473ffffffffffffffffffffffffffffffffffffffff1673ffffffffffffffffffffffffffffffffffffffff168152602001908152602001600020819055508173ffffffffffffffffffffffffffffffffffffffff168373ffffffffffffffffffffffffffffffffffffffff167f8c5be1e5ebec7d5bd14f71427d1e84f3dd0314c0f7b2291e5b200ac8c7c3b92583604051610a429190611162565b60405180910390a3505050565b6000610a5b8484610700565b90507fffffffffffffffffffffffffffffffffffffffffffffffffffffffffffffffff8114610ad55781811015610ac7576040517f08c379a0000000000000000000000000000000000000000000000000000000008152600401610abe90611683565b60405180910390fd5b610ad48484848403610886565b5b50505050565b600073ffffffffffffffffffffffffffffffffffffffff168373ffffffffffffffffffffffffffffffffffffffff1603610b4a576040517f08c379a0000000000000000000000000000000000000000000000000000000008152600401610b4190611715565b60405180910390fd5b600073ffffffffffffffffffffffffffffffffffffffff168273ffffffffffffffffffffffffffffffffffffffff1603610bb9576040517f08c379a0000000000000000000000000000000000000000000000000000000008152600401610bb0906117a7565b60405180910390fd5b610bc4838383610f7f565b60008060008573ffffffffffffffffffffffffffffffffffffffff1673ffffffffffffffffffffffffffffffffffffffff16815260200190815260200160002054905081811015610c4a576040517f08c379a0000000000000000000000000000000000000000000000000000000008152600401610c4190611839565b60405180910390fd5b8181036000808673ffffffffffffffffffffffffffffffffffffffff1673ffffffffffffffffffffffffffffffffffffffff16815260200190815260200160002081905550816000808573ffffffffffffffffffffffffffffffffffffffff1673ffffffffffffffffffffffffffffffffffffffff1681526020019081526020016000206000828254610cdd919061132d565b925050819055508273ffffffffffffffffffffffffffffffffffffffff168473ffffffffffffffffffffffffffffffffffffffff167fddf252ad1be2c89b69c2b068fc378daa952ba7f163c4a11628f55a4df523b3ef84604051610d419190611162565b60405180910390a3610d54848484610f84565b50505050565b600073ffffffffffffffffffffffffffffffffffffffff168273ffffffffffffffffffffffffffffffffffffffff1603610dc9576040517f08c379a0000000000000000000000000000000000000000000000000000000008152600401610dc0906118a5565b60405180910390fd5b610dd560008383610f7f565b8060026000828254610de7919061132d565b92505081905550806000808473ffffffffffffffffffffffffffffffffffffffff1673ffffffffffffffffffffffffffffffffffffffff1681526020019081526020016000206000828254610e3c919061132d565b925050819055508173ffffffffffffffffffffffffffffffffffffffff16600073ffffffffffffffffffffffffffffffffffffffff167fddf252ad1be2c89b69c2b068fc378daa952ba7f163c4a11628f55a4df523b3ef83604051610ea19190611162565b60405180910390a3610eb560008383610f84565b5050565b6000600560009054906101000a900473ffffffffffffffffffffffffffffffffffffffff16905081600560006101000a81548173ffffffffffffffffffffffffffffffffffffffff021916908373ffffffffffffffffffffffffffffffffffffffff1602179055508173ffffffffffffffffffffffffffffffffffffffff168173ffffffffffffffffffffffffffffffffffffffff167f8be0079c531659141344cd1fd0a4f28419497f9722a3daafe3b4186f6b6457e060405160405180910390a35050565b505050565b505050565b600081519050919050565b600082825260208201905092915050565b60005b83811015610fc3578082015181840152602081019050610fa8565b83811115610fd2576000848401525b50505050565b6000601f19601f8301169050919050565b6000610ff482610f89565b610ffe8185610f94565b935061100e818560208601610fa5565b61101781610fd8565b840191505092915050565b6000602082019050818103600083015261103c8184610fe9565b905092915050565b600080fd5b600073ffffffffffffffffffffffffffffffffffffffff82169050919050565b600061107482611049565b9050919050565b61108481611069565b811461108f57600080fd5b50565b6000813590506110a18161107b565b92915050565b6000819050919050565b6110ba816110a7565b81146110c557600080fd5b50565b6000813590506110d7816110b1565b92915050565b600080604083850312156110f4576110f3611044565b5b600061110285828601611092565b9250506020611113858286016110c8565b9150509250929050565b60008115159050919050565b6111328161111d565b82525050565b600060208201905061114d6000830184611129565b92915050565b61115c816110a7565b82525050565b60006020820190506111776000830184611153565b92915050565b60008060006060848603121561119657611195611044565b5b60006111a486828701611092565b93505060206111b586828701611092565b92505060406111c6868287016110c8565b9150509250925092565b600060ff82169050919050565b6111e6816111d0565b82525050565b600060208201905061120160008301846111dd565b92915050565b60006020828403121561121d5761121c611044565b5b600061122b84828501611092565b91505092915050565b61123d81611069565b82525050565b60006020820190506112586000830184611234565b92915050565b6000806040838503121561127557611274611044565b5b600061128385828601611092565b925050602061129485828601611092565b9150509250929050565b7f4e487b7100000000000000000000000000000000000000000000000000000000600052602260045260246000fd5b600060028204905060018216806112e557607f821691505b6020821081036112f8576112f761129e565b5b50919050565b7f4e487b7100000000000000000000000000000000000000000000000000000000600052601160045260246000fd5b6000611338826110a7565b9150611343836110a7565b9250827fffffffffffffffffffffffffffffffffffffffffffffffffffffffffffffffff03821115611378576113776112fe565b5b828201905092915050565b7f4f776e61626c653a2063616c6c6572206973206e6f7420746865206f776e6572600082015250565b60006113b9602083610f94565b91506113c482611383565b602082019050919050565b600060208201905081810360008301526113e8816113ac565b9050919050565b7f45524332303a2064656372656173656420616c6c6f77616e63652062656c6f7760008201527f207a65726f000000000000000000000000000000000000000000000000000000602082015250565b600061144b602583610f94565b9150611456826113ef565b604082019050919050565b6000602082019050818103600083015261147a8161143e565b9050919050565b7f4f776e61626c653a206e6577206f776e657220697320746865207a65726f206160008201527f6464726573730000000000000000000000000000000000000000000000000000602082015250565b60006114dd602683610f94565b91506114e882611481565b604082019050919050565b6000602082019050818103600083015261150c816114d0565b9050919050565b7f45524332303a20617070726f76652066726f6d20746865207a65726f2061646460008201527f7265737300000000000000000000000000000000000000000000000000000000602082015250565b600061156f602483610f94565b915061157a82611513565b604082019050919050565b6000602082019050818103600083015261159e81611562565b9050919050565b7f45524332303a20617070726f766520746f20746865207a65726f20616464726560008201527f7373000000000000000000000000000000000000000000000000000000000000602082015250565b6000611601602283610f94565b915061160c826115a5565b604082019050919050565b60006020820190508181036000830152611630816115f4565b9050919050565b7f45524332303a20696e73756666696369656e7420616c6c6f77616e6365000000600082015250565b600061166d601d83610f94565b915061167882611637565b602082019050919050565b6000602082019050818103600083015261169c81611660565b9050919050565b7f45524332303a207472616e736665722066726f6d20746865207a65726f20616460008201527f6472657373000000000000000000000000000000000000000000000000000000602082015250565b60006116ff602583610f94565b915061170a826116a3565b604082019050919050565b6000602082019050818103600083015261172e816116f2565b9050919050565b7f45524332303a207472616e7366657220746f20746865207a65726f206164647260008201527f6573730000000000000000000000000000000000000000000000000000000000602082015250565b6000611791602383610f94565b915061179c82611735565b604082019050919050565b600060208201905081810360008301526117c081611784565b9050919050565b7f45524332303a207472616e7366657220616d6f756e742065786365656473206260008201527f616c616e63650000000000000000000000000000000000000000000000000000602082015250565b6000611823602683610f94565b915061182e826117c7565b604082019050919050565b6000602082019050818103600083015261185281611816565b9050919050565b7f45524332303a206d696e7420746f20746865207a65726f206164647265737300600082015250565b600061188f601f83610f94565b915061189a82611859565b602082019050919050565b600060208201905081810360008301526118be81611882565b905091905056fea2646970667358221220f0595700aa1cc2b7d44f858e5c18ece08966c09b998a9ab8671626f47f45cfa464736f6c634300080d0033",
  "immutableReferences": {},
  "source": "// SPDX-License-Identifier: MIT\npragma solidity ^0.8.0;\n\nimport \"@openzeppelin/contracts/access/Ownable.sol\";\nimport \"./MutualToken.sol\";\nimport \"./MutualEscrowToken.sol\";\nimport \"./UserActivityProposal.sol\";\n\ncontract MutualTokenFactory is Ownable {\n\n    struct ProposalConfig {\n        uint8 acceptedCountLimit;\n        uint8 rejectedCountLimit;\n    }\n\n    struct UserState {\n        address user;\n        string info;\n        bool joined;\n    }\n\n    struct UserProposal {\n        address user;\n        UserActivityProposal proposal;\n        bool exists;\n    }\n\n     MutualToken mutualToken;\n     MutualEscrowToken escrowToken;\n\n     mapping(address => UserState) public userStates;\n\n     mapping(address => UserProposal) public userJoinedProposal;\n\n     ProposalConfig config;\n\n    constructor() Ownable() {\n        mutualToken = new MutualToken();\n        escrowToken = new MutualEscrowToken();\n        config.acceptedCountLimit = 0;\n        config.rejectedCountLimit = 1;\n    }\n\n    event ProposalReCreated(address to);\n\n    event ProposalCreated(address to);\n\n    event ProposalDone(address to);\n\n    event ProposalReject(address to);\n\n    function join(uint256 amount, string calldata description) public returns(address _proposalAddress) {\n        require(owner() != msg.sender, \"manager can not join\");\n        require(!userStates[msg.sender].joined, \"account had been joined.\");\n\n        if(userJoinedProposal[msg.sender].exists) {\n            emit ProposalReCreated(address(userJoinedProposal[msg.sender].proposal));\n            return address(userJoinedProposal[msg.sender].proposal);\n        }\n\n        UserActivityProposal proposal = new UserActivityProposal(msg.sender, description, amount,  owner(), config.acceptedCountLimit, config.rejectedCountLimit);\n        userJoinedProposal[msg.sender].proposal = proposal;\n        userJoinedProposal[msg.sender].exists = true;\n\n        emit ProposalCreated(address(proposal));\n        return address(userJoinedProposal[msg.sender].proposal);\n    } \n\n    function accept(address to) public {\n       require(msg.sender == owner() || userStates[msg.sender].joined, \"user must owner or user had been joined.\");\n       require(msg.sender != to, \"user can only vote for other users\");\n       require(userJoinedProposal[to].exists, \"proposal exists\");\n\n       UserActivityProposal proposal = userJoinedProposal[to].proposal;\n       UserActivityProposal.Stage stage = proposal.vote(msg.sender, true);\n       if(stage == UserActivityProposal.Stage.Done) {\n           uint256 tokenAmount = proposal.getAmount() / 2;\n           uint256 escrowTokenAmount = proposal.getAmount() - tokenAmount;\n\n           mutualToken.mint(to, tokenAmount);\n           escrowToken.mint(to, escrowTokenAmount);\n\n           userStates[to].user = proposal.getUser();\n           userStates[to].info = proposal.getInfo();\n           userStates[to].joined = true;\n\n           emit ProposalDone(to);\n       }\n    }\n\n    function reject(address to) public returns(UserActivityProposal.Stage stage) {\n       require(msg.sender == owner() || userStates[msg.sender].joined, \"user must owner or user had been joined.\");\n       require(msg.sender != to, \"user can only vote for other users\");\n       require(userJoinedProposal[to].exists, \"proposal exists\");\n       UserActivityProposal proposal = userJoinedProposal[to].proposal;\n       stage = proposal.vote(msg.sender, false);\n       if(stage == UserActivityProposal.Stage.Reject) {\n           userJoinedProposal[to].exists = false;\n           emit ProposalReject(to);\n       }\n    }\n\n    function getTokenAddress() public view returns (address _address) {\n        return address(mutualToken);\n    }\n\n    function getEscrowTokenAddress() public view returns (address _address) {\n        return address(escrowToken);\n    }\n\n}",
  "sourcePath": "/Users/jonah/SolidityProject/otest/contracts/MutualTokenFactory.sol",
  "compiler": {
    "name": "solc",
    "version": "0.8.13+commit.abaa5c0e.Emscripten.clang"
  },
  "schemaVersion": "3.4.7",
  "updatedAt": "2022-05-05T16:18:18.318Z",
  "networkType": "ethereum",
  "devdoc": {
    "kind": "dev",
    "methods": {
      "owner()": {
        "details": "Returns the address of the current owner."
      },
      "renounceOwnership()": {
        "details": "Leaves the contract without owner. It will not be possible to call `onlyOwner` functions anymore. Can only be called by the current owner. NOTE: Renouncing ownership will leave the contract without an owner, thereby removing any functionality that is only available to the owner."
      },
      "transferOwnership(address)": {
        "details": "Transfers ownership of the contract to a new account (`newOwner`). Can only be called by the current owner."
      }
    },
    "version": 1
  },
  "userdoc": {
    "kind": "user",
    "methods": {},
    "version": 1
  }
}