{
  "contractName": "MutualTokenFactory",
  "abi": [
    {
      "inputs": [],
      "stateMutability": "nonpayable",
      "type": "constructor"
    },
    {
      "anonymous": false,
      "inputs": [
        {
          "indexed": true,
          "internalType": "address",
          "name": "previousOwner",
          "type": "address"
        },
        {
          "indexed": true,
          "internalType": "address",
          "name": "newOwner",
          "type": "address"
        }
      ],
      "name": "OwnershipTransferred",
      "type": "event"
    },
    {
      "anonymous": false,
      "inputs": [
        {
          "indexed": false,
          "internalType": "address",
          "name": "contractAddress",
          "type": "address"
        }
      ],
      "name": "ProposalCreated",
      "type": "event"
    },
    {
      "anonymous": false,
      "inputs": [
        {
          "indexed": false,
          "internalType": "address",
          "name": "proposal",
          "type": "address"
        }
      ],
      "name": "ProposalDone",
      "type": "event"
    },
    {
      "anonymous": false,
      "inputs": [
        {
          "indexed": false,
          "internalType": "address",
          "name": "contractAddress",
          "type": "address"
        }
      ],
      "name": "ProposalReCreated",
      "type": "event"
    },
    {
      "anonymous": false,
      "inputs": [
        {
          "indexed": false,
          "internalType": "address",
          "name": "proposal",
          "type": "address"
        }
      ],
      "name": "ProposalReject",
      "type": "event"
    },
    {
      "inputs": [],
      "name": "owner",
      "outputs": [
        {
          "internalType": "address",
          "name": "",
          "type": "address"
        }
      ],
      "stateMutability": "view",
      "type": "function",
      "constant": true
    },
    {
      "inputs": [],
      "name": "renounceOwnership",
      "outputs": [],
      "stateMutability": "nonpayable",
      "type": "function"
    },
    {
      "inputs": [
        {
          "internalType": "address",
          "name": "newOwner",
          "type": "address"
        }
      ],
      "name": "transferOwnership",
      "outputs": [],
      "stateMutability": "nonpayable",
      "type": "function"
    },
    {
      "inputs": [
        {
          "internalType": "address",
          "name": "",
          "type": "address"
        }
      ],
      "name": "userJoinedProposal",
      "outputs": [
        {
          "internalType": "address",
          "name": "user",
          "type": "address"
        },
        {
          "internalType": "contract UserActivityProposal",
          "name": "proposal",
          "type": "address"
        },
        {
          "internalType": "bool",
          "name": "exists",
          "type": "bool"
        }
      ],
      "stateMutability": "view",
      "type": "function",
      "constant": true
    },
    {
      "inputs": [
        {
          "internalType": "address",
          "name": "",
          "type": "address"
        }
      ],
      "name": "userStates",
      "outputs": [
        {
          "internalType": "address",
          "name": "user",
          "type": "address"
        },
        {
          "internalType": "string",
          "name": "info",
          "type": "string"
        },
        {
          "internalType": "bool",
          "name": "joined",
          "type": "bool"
        }
      ],
      "stateMutability": "view",
      "type": "function",
      "constant": true
    },
    {
      "inputs": [
        {
          "internalType": "uint256",
          "name": "amount",
          "type": "uint256"
        },
        {
          "internalType": "string",
          "name": "description",
          "type": "string"
        }
      ],
      "name": "join",
      "outputs": [
        {
          "internalType": "address",
          "name": "_proposalAddress",
          "type": "address"
        }
      ],
      "stateMutability": "nonpayable",
      "type": "function"
    },
    {
      "inputs": [
        {
          "internalType": "address",
          "name": "to",
          "type": "address"
        }
      ],
      "name": "accept",
      "outputs": [],
      "stateMutability": "nonpayable",
      "type": "function"
    },
    {
      "inputs": [
        {
          "internalType": "address",
          "name": "to",
          "type": "address"
        }
      ],
      "name": "reject",
      "outputs": [
        {
          "internalType": "enum IUserActivityProposal.Stage",
          "name": "stage",
          "type": "uint8"
        }
      ],
      "stateMutability": "nonpayable",
      "type": "function"
    },
    {
      "inputs": [],
      "name": "getTokenAddress",
      "outputs": [
        {
          "internalType": "address",
          "name": "_address",
          "type": "address"
        }
      ],
      "stateMutability": "view",
      "type": "function",
      "constant": true
    },
    {
      "inputs": [],
      "name": "getEscrowTokenAddress",
      "outputs": [
        {
          "internalType": "address",
          "name": "_address",
          "type": "address"
        }
      ],
      "stateMutability": "view",
      "type": "function",
      "constant": true
    }
  ],
  "bytecode": "0x60806040523480156200001157600080fd5b5062000032620000266200014e60201b60201c565b6200015660201b60201c565b60405162000040906200021a565b604051809103906000f0801580156200005d573d6000803e3d6000fd5b50600160006101000a81548173ffffffffffffffffffffffffffffffffffffffff021916908373ffffffffffffffffffffffffffffffffffffffff160217905550604051620000ac9062000228565b604051809103906000f080158015620000c9573d6000803e3d6000fd5b50600260006101000a81548173ffffffffffffffffffffffffffffffffffffffff021916908373ffffffffffffffffffffffffffffffffffffffff1602179055506000600560000160006101000a81548160ff021916908360ff1602179055506001600560000160016101000a81548160ff021916908360ff16021790555062000236565b600033905090565b60008060009054906101000a900473ffffffffffffffffffffffffffffffffffffffff169050816000806101000a81548173ffffffffffffffffffffffffffffffffffffffff021916908373ffffffffffffffffffffffffffffffffffffffff1602179055508173ffffffffffffffffffffffffffffffffffffffff168173ffffffffffffffffffffffffffffffffffffffff167f8be0079c531659141344cd1fd0a4f28419497f9722a3daafe3b4186f6b6457e060405160405180910390a35050565b611bc58062002afd83390190565b611bc580620046c283390190565b6128b780620002466000396000f3fe60806040523480156200001157600080fd5b5060043610620000ac5760003560e01c80638bea736e116200006f5780638bea736e14620001855780638da5cb5b14620001a75780639f00592014620001c9578063ab0da5a914620001e9578063f2fde38b146200021f57620000ac565b80630734a58b14620000b15780630ecc535f14620000e957806310fe9ae814620001215780633cfb3d8a1462000143578063715018a61462000179575b600080fd5b620000cf6004803603810190620000c9919062000f1d565b6200023f565b604051620000e09392919062000fe8565b60405180910390f35b62000107600480360381019062000101919062000f1d565b620002b6565b6040516200011893929190620010c9565b60405180910390f35b6200012b6200039d565b6040516200013a91906200110d565b60405180910390f35b6200016160048036038101906200015b9190620011d3565b620003c7565b6040516200017091906200110d565b60405180910390f35b6200018362000754565b005b6200018f620007e5565b6040516200019e91906200110d565b60405180910390f35b620001b16200080f565b604051620001c091906200110d565b60405180910390f35b620001e76004803603810190620001e1919062000f1d565b62000838565b005b62000207600480360381019062000201919062000f1d565b62000c46565b604051620002169190620012bd565b60405180910390f35b6200023d600480360381019062000237919062000f1d565b62000cd1565b005b60046020528060005260406000206000915090508060000160009054906101000a900473ffffffffffffffffffffffffffffffffffffffff16908060010160009054906101000a900473ffffffffffffffffffffffffffffffffffffffff16908060010160149054906101000a900460ff16905083565b60036020528060005260406000206000915090508060000160009054906101000a900473ffffffffffffffffffffffffffffffffffffffff1690806001018054620003019062001309565b80601f01602080910402602001604051908101604052809291908181526020018280546200032f9062001309565b8015620003805780601f10620003545761010080835404028352916020019162000380565b820191906000526020600020905b8154815290600101906020018083116200036257829003601f168201915b5050505050908060020160009054906101000a900460ff16905083565b6000600160009054906101000a900473ffffffffffffffffffffffffffffffffffffffff16905090565b6000600360003373ffffffffffffffffffffffffffffffffffffffff1673ffffffffffffffffffffffffffffffffffffffff16815260200190815260200160002060020160009054906101000a900460ff16156200045c576040517f08c379a000000000000000000000000000000000000000000000000000000000815260040162000453906200138e565b60405180910390fd5b600460003373ffffffffffffffffffffffffffffffffffffffff1673ffffffffffffffffffffffffffffffffffffffff16815260200190815260200160002060010160149054906101000a900460ff1615620005b8577f299f6b431d20505d54957d6f502e50c91eee5148992dd9510f4bd75e8dd384f8600460003373ffffffffffffffffffffffffffffffffffffffff1673ffffffffffffffffffffffffffffffffffffffff16815260200190815260200160002060010160009054906101000a900473ffffffffffffffffffffffffffffffffffffffff166040516200054591906200110d565b60405180910390a1600460003373ffffffffffffffffffffffffffffffffffffffff1673ffffffffffffffffffffffffffffffffffffffff16815260200190815260200160002060010160009054906101000a900473ffffffffffffffffffffffffffffffffffffffff1690506200074d565b6000838386620005c76200080f565b600560000160009054906101000a900460ff16600560000160019054906101000a900460ff16604051620005fb9062000ea0565b6200060c9695949392919062001421565b604051809103906000f08015801562000629573d6000803e3d6000fd5b50905080600460003373ffffffffffffffffffffffffffffffffffffffff1673ffffffffffffffffffffffffffffffffffffffff16815260200190815260200160002060010160006101000a81548173ffffffffffffffffffffffffffffffffffffffff021916908373ffffffffffffffffffffffffffffffffffffffff1602179055507f488fccde177d9377f35d8d9a4f0b3462fcc7cdb926a00d3d99630ef1d672a2cd81604051620006de91906200110d565b60405180910390a1600460003373ffffffffffffffffffffffffffffffffffffffff1673ffffffffffffffffffffffffffffffffffffffff16815260200190815260200160002060010160009054906101000a900473ffffffffffffffffffffffffffffffffffffffff169150505b9392505050565b6200075e62000dd4565b73ffffffffffffffffffffffffffffffffffffffff166200077e6200080f565b73ffffffffffffffffffffffffffffffffffffffff1614620007d7576040517f08c379a0000000000000000000000000000000000000000000000000000000008152600401620007ce90620014d7565b60405180910390fd5b620007e3600062000ddc565b565b6000600260009054906101000a900473ffffffffffffffffffffffffffffffffffffffff16905090565b60008060009054906101000a900473ffffffffffffffffffffffffffffffffffffffff16905090565b600081905060008173ffffffffffffffffffffffffffffffffffffffff16634b9f5c9860016040518263ffffffff1660e01b81526004016200087b9190620014f9565b6020604051808303816000875af11580156200089b573d6000803e3d6000fd5b505050506040513d601f19601f82011682018060405250810190620008c191906200153e565b905060026003811115620008da57620008d96200123d565b5b816003811115620008f057620008ef6200123d565b5b0362000c4157600060028373ffffffffffffffffffffffffffffffffffffffff1663d321fe296040518163ffffffff1660e01b8152600401602060405180830381865afa15801562000946573d6000803e3d6000fd5b505050506040513d601f19601f820116820180604052508101906200096c919062001587565b62000978919062001617565b90506000818473ffffffffffffffffffffffffffffffffffffffff1663d321fe296040518163ffffffff1660e01b8152600401602060405180830381865afa158015620009c9573d6000803e3d6000fd5b505050506040513d601f19601f82011682018060405250810190620009ef919062001587565b620009fb91906200164f565b9050600160009054906101000a900473ffffffffffffffffffffffffffffffffffffffff1673ffffffffffffffffffffffffffffffffffffffff166340c10f198573ffffffffffffffffffffffffffffffffffffffff1663832880e76040518163ffffffff1660e01b8152600401602060405180830381865afa15801562000a87573d6000803e3d6000fd5b505050506040513d601f19601f8201168201806040525081019062000aad9190620016a1565b846040518363ffffffff1660e01b815260040162000acd929190620016d3565b600060405180830381600087803b15801562000ae857600080fd5b505af115801562000afd573d6000803e3d6000fd5b50505050600260009054906101000a900473ffffffffffffffffffffffffffffffffffffffff1673ffffffffffffffffffffffffffffffffffffffff166340c10f198573ffffffffffffffffffffffffffffffffffffffff1663832880e76040518163ffffffff1660e01b8152600401602060405180830381865afa15801562000b8b573d6000803e3d6000fd5b505050506040513d601f19601f8201168201806040525081019062000bb19190620016a1565b836040518363ffffffff1660e01b815260040162000bd1929190620016d3565b600060405180830381600087803b15801562000bec57600080fd5b505af115801562000c01573d6000803e3d6000fd5b505050507f9ef19eae0bc3c3697a33bfce884cc412cef714b4f78e716dfafad37a8dd79a118560405162000c3691906200110d565b60405180910390a150505b505050565b60008173ffffffffffffffffffffffffffffffffffffffff16634b9f5c9860006040518263ffffffff1660e01b815260040162000c849190620014f9565b6020604051808303816000875af115801562000ca4573d6000803e3d6000fd5b505050506040513d601f19601f8201168201806040525081019062000cca91906200153e565b9050919050565b62000cdb62000dd4565b73ffffffffffffffffffffffffffffffffffffffff1662000cfb6200080f565b73ffffffffffffffffffffffffffffffffffffffff161462000d54576040517f08c379a000000000000000000000000000000000000000000000000000000000815260040162000d4b90620014d7565b60405180910390fd5b600073ffffffffffffffffffffffffffffffffffffffff168173ffffffffffffffffffffffffffffffffffffffff160362000dc6576040517f08c379a000000000000000000000000000000000000000000000000000000000815260040162000dbd9062001776565b60405180910390fd5b62000dd18162000ddc565b50565b600033905090565b60008060009054906101000a900473ffffffffffffffffffffffffffffffffffffffff169050816000806101000a81548173ffffffffffffffffffffffffffffffffffffffff021916908373ffffffffffffffffffffffffffffffffffffffff1602179055508173ffffffffffffffffffffffffffffffffffffffff168173ffffffffffffffffffffffffffffffffffffffff167f8be0079c531659141344cd1fd0a4f28419497f9722a3daafe3b4186f6b6457e060405160405180910390a35050565b6110e9806200179983390190565b600080fd5b600080fd5b600073ffffffffffffffffffffffffffffffffffffffff82169050919050565b600062000ee58262000eb8565b9050919050565b62000ef78162000ed8565b811462000f0357600080fd5b50565b60008135905062000f178162000eec565b92915050565b60006020828403121562000f365762000f3562000eae565b5b600062000f468482850162000f06565b91505092915050565b62000f5a8162000ed8565b82525050565b6000819050919050565b600062000f8b62000f8562000f7f8462000eb8565b62000f60565b62000eb8565b9050919050565b600062000f9f8262000f6a565b9050919050565b600062000fb38262000f92565b9050919050565b62000fc58162000fa6565b82525050565b60008115159050919050565b62000fe28162000fcb565b82525050565b600060608201905062000fff600083018662000f4f565b6200100e602083018562000fba565b6200101d604083018462000fd7565b949350505050565b600081519050919050565b600082825260208201905092915050565b60005b838110156200106157808201518184015260208101905062001044565b8381111562001071576000848401525b50505050565b6000601f19601f8301169050919050565b6000620010958262001025565b620010a1818562001030565b9350620010b381856020860162001041565b620010be8162001077565b840191505092915050565b6000606082019050620010e0600083018662000f4f565b8181036020830152620010f4818562001088565b905062001105604083018462000fd7565b949350505050565b600060208201905062001124600083018462000f4f565b92915050565b6000819050919050565b6200113f816200112a565b81146200114b57600080fd5b50565b6000813590506200115f8162001134565b92915050565b600080fd5b600080fd5b600080fd5b60008083601f8401126200118d576200118c62001165565b5b8235905067ffffffffffffffff811115620011ad57620011ac6200116a565b5b602083019150836001820283011115620011cc57620011cb6200116f565b5b9250929050565b600080600060408486031215620011ef57620011ee62000eae565b5b6000620011ff868287016200114e565b935050602084013567ffffffffffffffff81111562001223576200122262000eb3565b5b620012318682870162001174565b92509250509250925092565b7f4e487b7100000000000000000000000000000000000000000000000000000000600052602160045260246000fd5b6004811062001280576200127f6200123d565b5b50565b600081905062001293826200126c565b919050565b6000620012a58262001283565b9050919050565b620012b78162001298565b82525050565b6000602082019050620012d46000830184620012ac565b92915050565b7f4e487b7100000000000000000000000000000000000000000000000000000000600052602260045260246000fd5b600060028204905060018216806200132257607f821691505b602082108103620013385762001337620012da565b5b50919050565b7f6163636f756e7420686164206265656e206a6f696e65642e0000000000000000600082015250565b60006200137660188362001030565b915062001383826200133e565b602082019050919050565b60006020820190508181036000830152620013a98162001367565b9050919050565b82818337600083830152505050565b6000620013cd838562001030565b9350620013dc838584620013b0565b620013e78362001077565b840190509392505050565b620013fd816200112a565b82525050565b600060ff82169050919050565b6200141b8162001403565b82525050565b600060a08201905081810360008301526200143e81888a620013bf565b90506200144f6020830187620013f2565b6200145e604083018662000f4f565b6200146d606083018562001410565b6200147c608083018462001410565b979650505050505050565b7f4f776e61626c653a2063616c6c6572206973206e6f7420746865206f776e6572600082015250565b6000620014bf60208362001030565b9150620014cc8262001487565b602082019050919050565b60006020820190508181036000830152620014f281620014b0565b9050919050565b600060208201905062001510600083018462000fd7565b92915050565b600481106200152457600080fd5b50565b600081519050620015388162001516565b92915050565b60006020828403121562001557576200155662000eae565b5b6000620015678482850162001527565b91505092915050565b600081519050620015818162001134565b92915050565b600060208284031215620015a0576200159f62000eae565b5b6000620015b08482850162001570565b91505092915050565b7f4e487b7100000000000000000000000000000000000000000000000000000000600052601260045260246000fd5b7f4e487b7100000000000000000000000000000000000000000000000000000000600052601160045260246000fd5b600062001624826200112a565b915062001631836200112a565b925082620016445762001643620015b9565b5b828204905092915050565b60006200165c826200112a565b915062001669836200112a565b9250828210156200167f576200167e620015e8565b5b828203905092915050565b6000815190506200169b8162000eec565b92915050565b600060208284031215620016ba57620016b962000eae565b5b6000620016ca848285016200168a565b91505092915050565b6000604082019050620016ea600083018562000f4f565b620016f96020830184620013f2565b9392505050565b7f4f776e61626c653a206e6577206f776e657220697320746865207a65726f206160008201527f6464726573730000000000000000000000000000000000000000000000000000602082015250565b60006200175e60268362001030565b91506200176b8262001700565b604082019050919050565b6000602082019050818103600083015262001791816200174f565b905091905056fe60806040523480156200001157600080fd5b50604051620010e9380380620010e9833981810160405281019062000037919062000444565b826000806101000a81548173ffffffffffffffffffffffffffffffffffffffff021916908373ffffffffffffffffffffffffffffffffffffffff16021790555033600160006101000a81548173ffffffffffffffffffffffffffffffffffffffff021916908373ffffffffffffffffffffffffffffffffffffffff1602179055508460029080519060200190620000d092919062000119565b5081600060146101000a81548160ff021916908360ff16021790555080600060156101000a81548160ff021916908360ff1602179055508360038190555050505050506200054f565b82805462000127906200051a565b90600052602060002090601f0160209004810192826200014b576000855562000197565b82601f106200016657805160ff191683800117855562000197565b8280016001018555821562000197579182015b828111156200019657825182559160200191906001019062000179565b5b509050620001a69190620001aa565b5090565b5b80821115620001c5576000816000905550600101620001ab565b5090565b6000604051905090565b600080fd5b600080fd5b600080fd5b600080fd5b6000601f19601f8301169050919050565b7f4e487b7100000000000000000000000000000000000000000000000000000000600052604160045260246000fd5b6200023282620001e7565b810181811067ffffffffffffffff82111715620002545762000253620001f8565b5b80604052505050565b600062000269620001c9565b905062000277828262000227565b919050565b600067ffffffffffffffff8211156200029a5762000299620001f8565b5b620002a582620001e7565b9050602081019050919050565b60005b83811015620002d2578082015181840152602081019050620002b5565b83811115620002e2576000848401525b50505050565b6000620002ff620002f9846200027c565b6200025d565b9050828152602081018484840111156200031e576200031d620001e2565b5b6200032b848285620002b2565b509392505050565b600082601f8301126200034b576200034a620001dd565b5b81516200035d848260208601620002e8565b91505092915050565b6000819050919050565b6200037b8162000366565b81146200038757600080fd5b50565b6000815190506200039b8162000370565b92915050565b600073ffffffffffffffffffffffffffffffffffffffff82169050919050565b6000620003ce82620003a1565b9050919050565b620003e081620003c1565b8114620003ec57600080fd5b50565b6000815190506200040081620003d5565b92915050565b600060ff82169050919050565b6200041e8162000406565b81146200042a57600080fd5b50565b6000815190506200043e8162000413565b92915050565b600080600080600060a08688031215620004635762000462620001d3565b5b600086015167ffffffffffffffff811115620004845762000483620001d8565b5b620004928882890162000333565b9550506020620004a5888289016200038a565b9450506040620004b888828901620003ef565b9350506060620004cb888289016200042d565b9250506080620004de888289016200042d565b9150509295509295909350565b7f4e487b7100000000000000000000000000000000000000000000000000000000600052602260045260246000fd5b600060028204905060018216806200053357607f821691505b602082108103620005495762000548620004eb565b5b50919050565b610b8a806200055f6000396000f3fe608060405234801561001057600080fd5b50600436106100cf5760003560e01c8063832880e71161008c578063c040e6b811610066578063c040e6b8146101f4578063c527290d14610212578063d321fe2914610230578063fcaa76641461024e576100cf565b8063832880e71461019a57806386c1e7cb146101b8578063aa8c217c146101d6576100cf565b806306fdde03146100d45780631b86bede146100f2578063409e1f85146101105780634b9f5c981461012e5780634f8632ba1461015e578063644cd3c11461017c575b600080fd5b6100dc61026c565b6040516100e9919061087f565b60405180910390f35b6100fa6102fa565b60405161010791906108bd565b60405180910390f35b61011861030d565b60405161012591906108bd565b60405180910390f35b61014860048036038101906101439190610915565b610320565b60405161015591906109b9565b60405180910390f35b610166610723565b6040516101739190610a15565b60405180910390f35b610184610749565b60405161019191906108bd565b60405180910390f35b6101a261075c565b6040516101af9190610a15565b60405180910390f35b6101c0610786565b6040516101cd9190610a3f565b60405180910390f35b6101de610799565b6040516101eb9190610a73565b60405180910390f35b6101fc61079f565b60405161020991906109b9565b60405180910390f35b61021a6107b2565b60405161022791906108bd565b60405180910390f35b6102386107c5565b6040516102459190610a73565b60405180910390f35b6102566107cf565b60405161026391906109b9565b60405180910390f35b6002805461027990610abd565b80601f01602080910402602001604051908101604052809291908181526020018280546102a590610abd565b80156102f25780601f106102c7576101008083540402835291602001916102f2565b820191906000526020600020905b8154815290600101906020018083116102d557829003601f168201915b505050505081565b600460039054906101000a900460ff1681565b600060149054906101000a900460ff1681565b6000600560003373ffffffffffffffffffffffffffffffffffffffff1673ffffffffffffffffffffffffffffffffffffffff16815260200190815260200160002060000160149054906101000a900460ff1615806103c9575060008054906101000a900473ffffffffffffffffffffffffffffffffffffffff1673ffffffffffffffffffffffffffffffffffffffff163373ffffffffffffffffffffffffffffffffffffffff16145b6103d257600080fd5b60008054906101000a900473ffffffffffffffffffffffffffffffffffffffff1673ffffffffffffffffffffffffffffffffffffffff163373ffffffffffffffffffffffffffffffffffffffff1603610445576001600460016101000a81548160ff02191690831515021790555061062a565b811561053c576001600460029054906101000a900460ff166104679190610b1d565b600460026101000a81548160ff021916908360ff1602179055506001600560003373ffffffffffffffffffffffffffffffffffffffff1673ffffffffffffffffffffffffffffffffffffffff16815260200190815260200160002060000160146101000a81548160ff0219169083151502179055506001600560003373ffffffffffffffffffffffffffffffffffffffff1673ffffffffffffffffffffffffffffffffffffffff16815260200190815260200160002060000160156101000a81548160ff021916908315150217905550610629565b6001600460029054906101000a900460ff166105589190610b1d565b600460026101000a81548160ff021916908360ff1602179055506001600560003373ffffffffffffffffffffffffffffffffffffffff1673ffffffffffffffffffffffffffffffffffffffff16815260200190815260200160002060000160146101000a81548160ff0219169083151502179055506001600560003373ffffffffffffffffffffffffffffffffffffffff1673ffffffffffffffffffffffffffffffffffffffff16815260200190815260200160002060000160156101000a81548160ff0219169083151502179055505b5b600460019054906101000a900460ff16801561066a5750600060149054906101000a900460ff1660ff16600460029054906101000a900460ff1660ff1610155b1561069b576002600460006101000a81548160ff0219169083600381111561069557610694610942565b5b02179055505b600460019054906101000a900460ff1615806106db5750600060159054906101000a900460ff1660ff16600460039054906101000a900460ff1660ff1610155b1561070c576003600460006101000a81548160ff0219169083600381111561070657610705610942565b5b02179055505b600460009054906101000a900460ff169050919050565b600160009054906101000a900473ffffffffffffffffffffffffffffffffffffffff1681565b600060159054906101000a900460ff1681565b6000600160009054906101000a900473ffffffffffffffffffffffffffffffffffffffff16905090565b600460019054906101000a900460ff1681565b60035481565b600460009054906101000a900460ff1681565b600460029054906101000a900460ff1681565b6000600354905090565b6000600460009054906101000a900460ff16905090565b600081519050919050565b600082825260208201905092915050565b60005b83811015610820578082015181840152602081019050610805565b8381111561082f576000848401525b50505050565b6000601f19601f8301169050919050565b6000610851826107e6565b61085b81856107f1565b935061086b818560208601610802565b61087481610835565b840191505092915050565b600060208201905081810360008301526108998184610846565b905092915050565b600060ff82169050919050565b6108b7816108a1565b82525050565b60006020820190506108d260008301846108ae565b92915050565b600080fd5b60008115159050919050565b6108f2816108dd565b81146108fd57600080fd5b50565b60008135905061090f816108e9565b92915050565b60006020828403121561092b5761092a6108d8565b5b600061093984828501610900565b91505092915050565b7f4e487b7100000000000000000000000000000000000000000000000000000000600052602160045260246000fd5b6004811061098257610981610942565b5b50565b600081905061099382610971565b919050565b60006109a382610985565b9050919050565b6109b381610998565b82525050565b60006020820190506109ce60008301846109aa565b92915050565b600073ffffffffffffffffffffffffffffffffffffffff82169050919050565b60006109ff826109d4565b9050919050565b610a0f816109f4565b82525050565b6000602082019050610a2a6000830184610a06565b92915050565b610a39816108dd565b82525050565b6000602082019050610a546000830184610a30565b92915050565b6000819050919050565b610a6d81610a5a565b82525050565b6000602082019050610a886000830184610a64565b92915050565b7f4e487b7100000000000000000000000000000000000000000000000000000000600052602260045260246000fd5b60006002820490506001821680610ad557607f821691505b602082108103610ae857610ae7610a8e565b5b50919050565b7f4e487b7100000000000000000000000000000000000000000000000000000000600052601160045260246000fd5b6000610b28826108a1565b9150610b33836108a1565b92508260ff03821115610b4957610b48610aee565b5b82820190509291505056fea2646970667358221220ecb31528511808233b5a08da81ce604b8551fb8059bd1c7ad37115102181975364736f6c634300080d0033a26469706673582212207297e4859a1cc823527584ee2bd4057590eb212e41d6a980c8e03b3d0df5e4cb64736f6c634300080d003360806040523480156200001157600080fd5b506040518060400160405280600b81526020017f4d757475616c546f6b656e0000000000000000000000000000000000000000008152506040518060400160405280600281526020017f4d56000000000000000000000000000000000000000000000000000000000000815250816003908051906020019062000096929190620001a6565b508060049080519060200190620000af929190620001a6565b505050620000d2620000c6620000d860201b60201c565b620000e060201b60201c565b620002ba565b600033905090565b6000600560009054906101000a900473ffffffffffffffffffffffffffffffffffffffff16905081600560006101000a81548173ffffffffffffffffffffffffffffffffffffffff021916908373ffffffffffffffffffffffffffffffffffffffff1602179055508173ffffffffffffffffffffffffffffffffffffffff168173ffffffffffffffffffffffffffffffffffffffff167f8be0079c531659141344cd1fd0a4f28419497f9722a3daafe3b4186f6b6457e060405160405180910390a35050565b828054620001b49062000285565b90600052602060002090601f016020900481019282620001d8576000855562000224565b82601f10620001f357805160ff191683800117855562000224565b8280016001018555821562000224579182015b828111156200022357825182559160200191906001019062000206565b5b50905062000233919062000237565b5090565b5b808211156200025257600081600090555060010162000238565b5090565b7f4e487b7100000000000000000000000000000000000000000000000000000000600052602260045260246000fd5b600060028204905060018216806200029e57607f821691505b602082108103620002b457620002b362000256565b5b50919050565b6118fb80620002ca6000396000f3fe608060405234801561001057600080fd5b50600436106100f55760003560e01c806370a0823111610097578063a457c2d711610066578063a457c2d714610276578063a9059cbb146102a6578063dd62ed3e146102d6578063f2fde38b14610306576100f5565b806370a0823114610200578063715018a6146102305780638da5cb5b1461023a57806395d89b4114610258576100f5565b806323b872dd116100d357806323b872dd14610166578063313ce5671461019657806339509351146101b457806340c10f19146101e4576100f5565b806306fdde03146100fa578063095ea7b31461011857806318160ddd14610148575b600080fd5b610102610322565b60405161010f9190611022565b60405180910390f35b610132600480360381019061012d91906110dd565b6103b4565b60405161013f9190611138565b60405180910390f35b6101506103d7565b60405161015d9190611162565b60405180910390f35b610180600480360381019061017b919061117d565b6103e1565b60405161018d9190611138565b60405180910390f35b61019e610410565b6040516101ab91906111ec565b60405180910390f35b6101ce60048036038101906101c991906110dd565b610419565b6040516101db9190611138565b60405180910390f35b6101fe60048036038101906101f991906110dd565b610450565b005b61021a60048036038101906102159190611207565b6104da565b6040516102279190611162565b60405180910390f35b610238610522565b005b6102426105aa565b60405161024f9190611243565b60405180910390f35b6102606105d4565b60405161026d9190611022565b60405180910390f35b610290600480360381019061028b91906110dd565b610666565b60405161029d9190611138565b60405180910390f35b6102c060048036038101906102bb91906110dd565b6106dd565b6040516102cd9190611138565b60405180910390f35b6102f060048036038101906102eb919061125e565b610700565b6040516102fd9190611162565b60405180910390f35b610320600480360381019061031b9190611207565b610787565b005b606060038054610331906112cd565b80601f016020809104026020016040519081016040528092919081815260200182805461035d906112cd565b80156103aa5780601f1061037f576101008083540402835291602001916103aa565b820191906000526020600020905b81548152906001019060200180831161038d57829003601f168201915b5050505050905090565b6000806103bf61087e565b90506103cc818585610886565b600191505092915050565b6000600254905090565b6000806103ec61087e565b90506103f9858285610a4f565b610404858585610adb565b60019150509392505050565b60006012905090565b60008061042461087e565b90506104458185856104368589610700565b610440919061132d565b610886565b600191505092915050565b61045861087e565b73ffffffffffffffffffffffffffffffffffffffff166104766105aa565b73ffffffffffffffffffffffffffffffffffffffff16146104cc576040517f08c379a00000000000000000000000000000000000000000000000000000000081526004016104c3906113cf565b60405180910390fd5b6104d68282610d5a565b5050565b60008060008373ffffffffffffffffffffffffffffffffffffffff1673ffffffffffffffffffffffffffffffffffffffff168152602001908152602001600020549050919050565b61052a61087e565b73ffffffffffffffffffffffffffffffffffffffff166105486105aa565b73ffffffffffffffffffffffffffffffffffffffff161461059e576040517f08c379a0000000000000000000000000000000000000000000000000000000008152600401610595906113cf565b60405180910390fd5b6105a86000610eb9565b565b6000600560009054906101000a900473ffffffffffffffffffffffffffffffffffffffff16905090565b6060600480546105e3906112cd565b80601f016020809104026020016040519081016040528092919081815260200182805461060f906112cd565b801561065c5780601f106106315761010080835404028352916020019161065c565b820191906000526020600020905b81548152906001019060200180831161063f57829003601f168201915b5050505050905090565b60008061067161087e565b9050600061067f8286610700565b9050838110156106c4576040517f08c379a00000000000000000000000000000000000000000000000000000000081526004016106bb90611461565b60405180910390fd5b6106d18286868403610886565b60019250505092915050565b6000806106e861087e565b90506106f5818585610adb565b600191505092915050565b6000600160008473ffffffffffffffffffffffffffffffffffffffff1673ffffffffffffffffffffffffffffffffffffffff16815260200190815260200160002060008373ffffffffffffffffffffffffffffffffffffffff1673ffffffffffffffffffffffffffffffffffffffff16815260200190815260200160002054905092915050565b61078f61087e565b73ffffffffffffffffffffffffffffffffffffffff166107ad6105aa565b73ffffffffffffffffffffffffffffffffffffffff1614610803576040517f08c379a00000000000000000000000000000000000000000000000000000000081526004016107fa906113cf565b60405180910390fd5b600073ffffffffffffffffffffffffffffffffffffffff168173ffffffffffffffffffffffffffffffffffffffff1603610872576040517f08c379a0000000000000000000000000000000000000000000000000000000008152600401610869906114f3565b60405180910390fd5b61087b81610eb9565b50565b600033905090565b600073ffffffffffffffffffffffffffffffffffffffff168373ffffffffffffffffffffffffffffffffffffffff16036108f5576040517f08c379a00000000000000000000000000000000000000000000000000000000081526004016108ec90611585565b60405180910390fd5b600073ffffffffffffffffffffffffffffffffffffffff168273ffffffffffffffffffffffffffffffffffffffff1603610964576040517f08c379a000000000000000000000000000000000000000000000000000000000815260040161095b90611617565b60405180910390fd5b80600160008573ffffffffffffffffffffffffffffffffffffffff1673ffffffffffffffffffffffffffffffffffffffff16815260200190815260200160002060008473ffffffffffffffffffffffffffffffffffffffff1673ffffffffffffffffffffffffffffffffffffffff168152602001908152602001600020819055508173ffffffffffffffffffffffffffffffffffffffff168373ffffffffffffffffffffffffffffffffffffffff167f8c5be1e5ebec7d5bd14f71427d1e84f3dd0314c0f7b2291e5b200ac8c7c3b92583604051610a429190611162565b60405180910390a3505050565b6000610a5b8484610700565b90507fffffffffffffffffffffffffffffffffffffffffffffffffffffffffffffffff8114610ad55781811015610ac7576040517f08c379a0000000000000000000000000000000000000000000000000000000008152600401610abe90611683565b60405180910390fd5b610ad48484848403610886565b5b50505050565b600073ffffffffffffffffffffffffffffffffffffffff168373ffffffffffffffffffffffffffffffffffffffff1603610b4a576040517f08c379a0000000000000000000000000000000000000000000000000000000008152600401610b4190611715565b60405180910390fd5b600073ffffffffffffffffffffffffffffffffffffffff168273ffffffffffffffffffffffffffffffffffffffff1603610bb9576040517f08c379a0000000000000000000000000000000000000000000000000000000008152600401610bb0906117a7565b60405180910390fd5b610bc4838383610f7f565b60008060008573ffffffffffffffffffffffffffffffffffffffff1673ffffffffffffffffffffffffffffffffffffffff16815260200190815260200160002054905081811015610c4a576040517f08c379a0000000000000000000000000000000000000000000000000000000008152600401610c4190611839565b60405180910390fd5b8181036000808673ffffffffffffffffffffffffffffffffffffffff1673ffffffffffffffffffffffffffffffffffffffff16815260200190815260200160002081905550816000808573ffffffffffffffffffffffffffffffffffffffff1673ffffffffffffffffffffffffffffffffffffffff1681526020019081526020016000206000828254610cdd919061132d565b925050819055508273ffffffffffffffffffffffffffffffffffffffff168473ffffffffffffffffffffffffffffffffffffffff167fddf252ad1be2c89b69c2b068fc378daa952ba7f163c4a11628f55a4df523b3ef84604051610d419190611162565b60405180910390a3610d54848484610f84565b50505050565b600073ffffffffffffffffffffffffffffffffffffffff168273ffffffffffffffffffffffffffffffffffffffff1603610dc9576040517f08c379a0000000000000000000000000000000000000000000000000000000008152600401610dc0906118a5565b60405180910390fd5b610dd560008383610f7f565b8060026000828254610de7919061132d565b92505081905550806000808473ffffffffffffffffffffffffffffffffffffffff1673ffffffffffffffffffffffffffffffffffffffff1681526020019081526020016000206000828254610e3c919061132d565b925050819055508173ffffffffffffffffffffffffffffffffffffffff16600073ffffffffffffffffffffffffffffffffffffffff167fddf252ad1be2c89b69c2b068fc378daa952ba7f163c4a11628f55a4df523b3ef83604051610ea19190611162565b60405180910390a3610eb560008383610f84565b5050565b6000600560009054906101000a900473ffffffffffffffffffffffffffffffffffffffff16905081600560006101000a81548173ffffffffffffffffffffffffffffffffffffffff021916908373ffffffffffffffffffffffffffffffffffffffff1602179055508173ffffffffffffffffffffffffffffffffffffffff168173ffffffffffffffffffffffffffffffffffffffff167f8be0079c531659141344cd1fd0a4f28419497f9722a3daafe3b4186f6b6457e060405160405180910390a35050565b505050565b505050565b600081519050919050565b600082825260208201905092915050565b60005b83811015610fc3578082015181840152602081019050610fa8565b83811115610fd2576000848401525b50505050565b6000601f19601f8301169050919050565b6000610ff482610f89565b610ffe8185610f94565b935061100e818560208601610fa5565b61101781610fd8565b840191505092915050565b6000602082019050818103600083015261103c8184610fe9565b905092915050565b600080fd5b600073ffffffffffffffffffffffffffffffffffffffff82169050919050565b600061107482611049565b9050919050565b61108481611069565b811461108f57600080fd5b50565b6000813590506110a18161107b565b92915050565b6000819050919050565b6110ba816110a7565b81146110c557600080fd5b50565b6000813590506110d7816110b1565b92915050565b600080604083850312156110f4576110f3611044565b5b600061110285828601611092565b9250506020611113858286016110c8565b9150509250929050565b60008115159050919050565b6111328161111d565b82525050565b600060208201905061114d6000830184611129565b92915050565b61115c816110a7565b82525050565b60006020820190506111776000830184611153565b92915050565b60008060006060848603121561119657611195611044565b5b60006111a486828701611092565b93505060206111b586828701611092565b92505060406111c6868287016110c8565b9150509250925092565b600060ff82169050919050565b6111e6816111d0565b82525050565b600060208201905061120160008301846111dd565b92915050565b60006020828403121561121d5761121c611044565b5b600061122b84828501611092565b91505092915050565b61123d81611069565b82525050565b60006020820190506112586000830184611234565b92915050565b6000806040838503121561127557611274611044565b5b600061128385828601611092565b925050602061129485828601611092565b9150509250929050565b7f4e487b7100000000000000000000000000000000000000000000000000000000600052602260045260246000fd5b600060028204905060018216806112e557607f821691505b6020821081036112f8576112f761129e565b5b50919050565b7f4e487b7100000000000000000000000000000000000000000000000000000000600052601160045260246000fd5b6000611338826110a7565b9150611343836110a7565b9250827fffffffffffffffffffffffffffffffffffffffffffffffffffffffffffffffff03821115611378576113776112fe565b5b828201905092915050565b7f4f776e61626c653a2063616c6c6572206973206e6f7420746865206f776e6572600082015250565b60006113b9602083610f94565b91506113c482611383565b602082019050919050565b600060208201905081810360008301526113e8816113ac565b9050919050565b7f45524332303a2064656372656173656420616c6c6f77616e63652062656c6f7760008201527f207a65726f000000000000000000000000000000000000000000000000000000602082015250565b600061144b602583610f94565b9150611456826113ef565b604082019050919050565b6000602082019050818103600083015261147a8161143e565b9050919050565b7f4f776e61626c653a206e6577206f776e657220697320746865207a65726f206160008201527f6464726573730000000000000000000000000000000000000000000000000000602082015250565b60006114dd602683610f94565b91506114e882611481565b604082019050919050565b6000602082019050818103600083015261150c816114d0565b9050919050565b7f45524332303a20617070726f76652066726f6d20746865207a65726f2061646460008201527f7265737300000000000000000000000000000000000000000000000000000000602082015250565b600061156f602483610f94565b915061157a82611513565b604082019050919050565b6000602082019050818103600083015261159e81611562565b9050919050565b7f45524332303a20617070726f766520746f20746865207a65726f20616464726560008201527f7373000000000000000000000000000000000000000000000000000000000000602082015250565b6000611601602283610f94565b915061160c826115a5565b604082019050919050565b60006020820190508181036000830152611630816115f4565b9050919050565b7f45524332303a20696e73756666696369656e7420616c6c6f77616e6365000000600082015250565b600061166d601d83610f94565b915061167882611637565b602082019050919050565b6000602082019050818103600083015261169c81611660565b9050919050565b7f45524332303a207472616e736665722066726f6d20746865207a65726f20616460008201527f6472657373000000000000000000000000000000000000000000000000000000602082015250565b60006116ff602583610f94565b915061170a826116a3565b604082019050919050565b6000602082019050818103600083015261172e816116f2565b9050919050565b7f45524332303a207472616e7366657220746f20746865207a65726f206164647260008201527f6573730000000000000000000000000000000000000000000000000000000000602082015250565b6000611791602383610f94565b915061179c82611735565b604082019050919050565b600060208201905081810360008301526117c081611784565b9050919050565b7f45524332303a207472616e7366657220616d6f756e742065786365656473206260008201527f616c616e63650000000000000000000000000000000000000000000000000000602082015250565b6000611823602683610f94565b915061182e826117c7565b604082019050919050565b6000602082019050818103600083015261185281611816565b9050919050565b7f45524332303a206d696e7420746f20746865207a65726f206164647265737300600082015250565b600061188f601f83610f94565b915061189a82611859565b602082019050919050565b600060208201905081810360008301526118be81611882565b905091905056fea2646970667358221220b76292f899b532d0081ab66a0bcfc7d3c4a88b6dcd71302c51551a0541ed729964736f6c634300080d003360806040523480156200001157600080fd5b506040518060400160405280601181526020017f4d757475616c457363726f77546f6b656e0000000000000000000000000000008152506040518060400160405280600381526020017f4d45560000000000000000000000000000000000000000000000000000000000815250816003908051906020019062000096929190620001a6565b508060049080519060200190620000af929190620001a6565b505050620000d2620000c6620000d860201b60201c565b620000e060201b60201c565b620002ba565b600033905090565b6000600560009054906101000a900473ffffffffffffffffffffffffffffffffffffffff16905081600560006101000a81548173ffffffffffffffffffffffffffffffffffffffff021916908373ffffffffffffffffffffffffffffffffffffffff1602179055508173ffffffffffffffffffffffffffffffffffffffff168173ffffffffffffffffffffffffffffffffffffffff167f8be0079c531659141344cd1fd0a4f28419497f9722a3daafe3b4186f6b6457e060405160405180910390a35050565b828054620001b49062000285565b90600052602060002090601f016020900481019282620001d8576000855562000224565b82601f10620001f357805160ff191683800117855562000224565b8280016001018555821562000224579182015b828111156200022357825182559160200191906001019062000206565b5b50905062000233919062000237565b5090565b5b808211156200025257600081600090555060010162000238565b5090565b7f4e487b7100000000000000000000000000000000000000000000000000000000600052602260045260246000fd5b600060028204905060018216806200029e57607f821691505b602082108103620002b457620002b362000256565b5b50919050565b6118fb80620002ca6000396000f3fe608060405234801561001057600080fd5b50600436106100f55760003560e01c806370a0823111610097578063a457c2d711610066578063a457c2d714610276578063a9059cbb146102a6578063dd62ed3e146102d6578063f2fde38b14610306576100f5565b806370a0823114610200578063715018a6146102305780638da5cb5b1461023a57806395d89b4114610258576100f5565b806323b872dd116100d357806323b872dd14610166578063313ce5671461019657806339509351146101b457806340c10f19146101e4576100f5565b806306fdde03146100fa578063095ea7b31461011857806318160ddd14610148575b600080fd5b610102610322565b60405161010f9190611022565b60405180910390f35b610132600480360381019061012d91906110dd565b6103b4565b60405161013f9190611138565b60405180910390f35b6101506103d7565b60405161015d9190611162565b60405180910390f35b610180600480360381019061017b919061117d565b6103e1565b60405161018d9190611138565b60405180910390f35b61019e610410565b6040516101ab91906111ec565b60405180910390f35b6101ce60048036038101906101c991906110dd565b610419565b6040516101db9190611138565b60405180910390f35b6101fe60048036038101906101f991906110dd565b610450565b005b61021a60048036038101906102159190611207565b6104da565b6040516102279190611162565b60405180910390f35b610238610522565b005b6102426105aa565b60405161024f9190611243565b60405180910390f35b6102606105d4565b60405161026d9190611022565b60405180910390f35b610290600480360381019061028b91906110dd565b610666565b60405161029d9190611138565b60405180910390f35b6102c060048036038101906102bb91906110dd565b6106dd565b6040516102cd9190611138565b60405180910390f35b6102f060048036038101906102eb919061125e565b610700565b6040516102fd9190611162565b60405180910390f35b610320600480360381019061031b9190611207565b610787565b005b606060038054610331906112cd565b80601f016020809104026020016040519081016040528092919081815260200182805461035d906112cd565b80156103aa5780601f1061037f576101008083540402835291602001916103aa565b820191906000526020600020905b81548152906001019060200180831161038d57829003601f168201915b5050505050905090565b6000806103bf61087e565b90506103cc818585610886565b600191505092915050565b6000600254905090565b6000806103ec61087e565b90506103f9858285610a4f565b610404858585610adb565b60019150509392505050565b60006012905090565b60008061042461087e565b90506104458185856104368589610700565b610440919061132d565b610886565b600191505092915050565b61045861087e565b73ffffffffffffffffffffffffffffffffffffffff166104766105aa565b73ffffffffffffffffffffffffffffffffffffffff16146104cc576040517f08c379a00000000000000000000000000000000000000000000000000000000081526004016104c3906113cf565b60405180910390fd5b6104d68282610d5a565b5050565b60008060008373ffffffffffffffffffffffffffffffffffffffff1673ffffffffffffffffffffffffffffffffffffffff168152602001908152602001600020549050919050565b61052a61087e565b73ffffffffffffffffffffffffffffffffffffffff166105486105aa565b73ffffffffffffffffffffffffffffffffffffffff161461059e576040517f08c379a0000000000000000000000000000000000000000000000000000000008152600401610595906113cf565b60405180910390fd5b6105a86000610eb9565b565b6000600560009054906101000a900473ffffffffffffffffffffffffffffffffffffffff16905090565b6060600480546105e3906112cd565b80601f016020809104026020016040519081016040528092919081815260200182805461060f906112cd565b801561065c5780601f106106315761010080835404028352916020019161065c565b820191906000526020600020905b81548152906001019060200180831161063f57829003601f168201915b5050505050905090565b60008061067161087e565b9050600061067f8286610700565b9050838110156106c4576040517f08c379a00000000000000000000000000000000000000000000000000000000081526004016106bb90611461565b60405180910390fd5b6106d18286868403610886565b60019250505092915050565b6000806106e861087e565b90506106f5818585610adb565b600191505092915050565b6000600160008473ffffffffffffffffffffffffffffffffffffffff1673ffffffffffffffffffffffffffffffffffffffff16815260200190815260200160002060008373ffffffffffffffffffffffffffffffffffffffff1673ffffffffffffffffffffffffffffffffffffffff16815260200190815260200160002054905092915050565b61078f61087e565b73ffffffffffffffffffffffffffffffffffffffff166107ad6105aa565b73ffffffffffffffffffffffffffffffffffffffff1614610803576040517f08c379a00000000000000000000000000000000000000000000000000000000081526004016107fa906113cf565b60405180910390fd5b600073ffffffffffffffffffffffffffffffffffffffff168173ffffffffffffffffffffffffffffffffffffffff1603610872576040517f08c379a0000000000000000000000000000000000000000000000000000000008152600401610869906114f3565b60405180910390fd5b61087b81610eb9565b50565b600033905090565b600073ffffffffffffffffffffffffffffffffffffffff168373ffffffffffffffffffffffffffffffffffffffff16036108f5576040517f08c379a00000000000000000000000000000000000000000000000000000000081526004016108ec90611585565b60405180910390fd5b600073ffffffffffffffffffffffffffffffffffffffff168273ffffffffffffffffffffffffffffffffffffffff1603610964576040517f08c379a000000000000000000000000000000000000000000000000000000000815260040161095b90611617565b60405180910390fd5b80600160008573ffffffffffffffffffffffffffffffffffffffff1673ffffffffffffffffffffffffffffffffffffffff16815260200190815260200160002060008473ffffffffffffffffffffffffffffffffffffffff1673ffffffffffffffffffffffffffffffffffffffff168152602001908152602001600020819055508173ffffffffffffffffffffffffffffffffffffffff168373ffffffffffffffffffffffffffffffffffffffff167f8c5be1e5ebec7d5bd14f71427d1e84f3dd0314c0f7b2291e5b200ac8c7c3b92583604051610a429190611162565b60405180910390a3505050565b6000610a5b8484610700565b90507fffffffffffffffffffffffffffffffffffffffffffffffffffffffffffffffff8114610ad55781811015610ac7576040517f08c379a0000000000000000000000000000000000000000000000000000000008152600401610abe90611683565b60405180910390fd5b610ad48484848403610886565b5b50505050565b600073ffffffffffffffffffffffffffffffffffffffff168373ffffffffffffffffffffffffffffffffffffffff1603610b4a576040517f08c379a0000000000000000000000000000000000000000000000000000000008152600401610b4190611715565b60405180910390fd5b600073ffffffffffffffffffffffffffffffffffffffff168273ffffffffffffffffffffffffffffffffffffffff1603610bb9576040517f08c379a0000000000000000000000000000000000000000000000000000000008152600401610bb0906117a7565b60405180910390fd5b610bc4838383610f7f565b60008060008573ffffffffffffffffffffffffffffffffffffffff1673ffffffffffffffffffffffffffffffffffffffff16815260200190815260200160002054905081811015610c4a576040517f08c379a0000000000000000000000000000000000000000000000000000000008152600401610c4190611839565b60405180910390fd5b8181036000808673ffffffffffffffffffffffffffffffffffffffff1673ffffffffffffffffffffffffffffffffffffffff16815260200190815260200160002081905550816000808573ffffffffffffffffffffffffffffffffffffffff1673ffffffffffffffffffffffffffffffffffffffff1681526020019081526020016000206000828254610cdd919061132d565b925050819055508273ffffffffffffffffffffffffffffffffffffffff168473ffffffffffffffffffffffffffffffffffffffff167fddf252ad1be2c89b69c2b068fc378daa952ba7f163c4a11628f55a4df523b3ef84604051610d419190611162565b60405180910390a3610d54848484610f84565b50505050565b600073ffffffffffffffffffffffffffffffffffffffff168273ffffffffffffffffffffffffffffffffffffffff1603610dc9576040517f08c379a0000000000000000000000000000000000000000000000000000000008152600401610dc0906118a5565b60405180910390fd5b610dd560008383610f7f565b8060026000828254610de7919061132d565b92505081905550806000808473ffffffffffffffffffffffffffffffffffffffff1673ffffffffffffffffffffffffffffffffffffffff1681526020019081526020016000206000828254610e3c919061132d565b925050819055508173ffffffffffffffffffffffffffffffffffffffff16600073ffffffffffffffffffffffffffffffffffffffff167fddf252ad1be2c89b69c2b068fc378daa952ba7f163c4a11628f55a4df523b3ef83604051610ea19190611162565b60405180910390a3610eb560008383610f84565b5050565b6000600560009054906101000a900473ffffffffffffffffffffffffffffffffffffffff16905081600560006101000a81548173ffffffffffffffffffffffffffffffffffffffff021916908373ffffffffffffffffffffffffffffffffffffffff1602179055508173ffffffffffffffffffffffffffffffffffffffff168173ffffffffffffffffffffffffffffffffffffffff167f8be0079c531659141344cd1fd0a4f28419497f9722a3daafe3b4186f6b6457e060405160405180910390a35050565b505050565b505050565b600081519050919050565b600082825260208201905092915050565b60005b83811015610fc3578082015181840152602081019050610fa8565b83811115610fd2576000848401525b50505050565b6000601f19601f8301169050919050565b6000610ff482610f89565b610ffe8185610f94565b935061100e818560208601610fa5565b61101781610fd8565b840191505092915050565b6000602082019050818103600083015261103c8184610fe9565b905092915050565b600080fd5b600073ffffffffffffffffffffffffffffffffffffffff82169050919050565b600061107482611049565b9050919050565b61108481611069565b811461108f57600080fd5b50565b6000813590506110a18161107b565b92915050565b6000819050919050565b6110ba816110a7565b81146110c557600080fd5b50565b6000813590506110d7816110b1565b92915050565b600080604083850312156110f4576110f3611044565b5b600061110285828601611092565b9250506020611113858286016110c8565b9150509250929050565b60008115159050919050565b6111328161111d565b82525050565b600060208201905061114d6000830184611129565b92915050565b61115c816110a7565b82525050565b60006020820190506111776000830184611153565b92915050565b60008060006060848603121561119657611195611044565b5b60006111a486828701611092565b93505060206111b586828701611092565b92505060406111c6868287016110c8565b9150509250925092565b600060ff82169050919050565b6111e6816111d0565b82525050565b600060208201905061120160008301846111dd565b92915050565b60006020828403121561121d5761121c611044565b5b600061122b84828501611092565b91505092915050565b61123d81611069565b82525050565b60006020820190506112586000830184611234565b92915050565b6000806040838503121561127557611274611044565b5b600061128385828601611092565b925050602061129485828601611092565b9150509250929050565b7f4e487b7100000000000000000000000000000000000000000000000000000000600052602260045260246000fd5b600060028204905060018216806112e557607f821691505b6020821081036112f8576112f761129e565b5b50919050565b7f4e487b7100000000000000000000000000000000000000000000000000000000600052601160045260246000fd5b6000611338826110a7565b9150611343836110a7565b9250827fffffffffffffffffffffffffffffffffffffffffffffffffffffffffffffffff03821115611378576113776112fe565b5b828201905092915050565b7f4f776e61626c653a2063616c6c6572206973206e6f7420746865206f776e6572600082015250565b60006113b9602083610f94565b91506113c482611383565b602082019050919050565b600060208201905081810360008301526113e8816113ac565b9050919050565b7f45524332303a2064656372656173656420616c6c6f77616e63652062656c6f7760008201527f207a65726f000000000000000000000000000000000000000000000000000000602082015250565b600061144b602583610f94565b9150611456826113ef565b604082019050919050565b6000602082019050818103600083015261147a8161143e565b9050919050565b7f4f776e61626c653a206e6577206f776e657220697320746865207a65726f206160008201527f6464726573730000000000000000000000000000000000000000000000000000602082015250565b60006114dd602683610f94565b91506114e882611481565b604082019050919050565b6000602082019050818103600083015261150c816114d0565b9050919050565b7f45524332303a20617070726f76652066726f6d20746865207a65726f2061646460008201527f7265737300000000000000000000000000000000000000000000000000000000602082015250565b600061156f602483610f94565b915061157a82611513565b604082019050919050565b6000602082019050818103600083015261159e81611562565b9050919050565b7f45524332303a20617070726f766520746f20746865207a65726f20616464726560008201527f7373000000000000000000000000000000000000000000000000000000000000602082015250565b6000611601602283610f94565b915061160c826115a5565b604082019050919050565b60006020820190508181036000830152611630816115f4565b9050919050565b7f45524332303a20696e73756666696369656e7420616c6c6f77616e6365000000600082015250565b600061166d601d83610f94565b915061167882611637565b602082019050919050565b6000602082019050818103600083015261169c81611660565b9050919050565b7f45524332303a207472616e736665722066726f6d20746865207a65726f20616460008201527f6472657373000000000000000000000000000000000000000000000000000000602082015250565b60006116ff602583610f94565b915061170a826116a3565b604082019050919050565b6000602082019050818103600083015261172e816116f2565b9050919050565b7f45524332303a207472616e7366657220746f20746865207a65726f206164647260008201527f6573730000000000000000000000000000000000000000000000000000000000602082015250565b6000611791602383610f94565b915061179c82611735565b604082019050919050565b600060208201905081810360008301526117c081611784565b9050919050565b7f45524332303a207472616e7366657220616d6f756e742065786365656473206260008201527f616c616e63650000000000000000000000000000000000000000000000000000602082015250565b6000611823602683610f94565b915061182e826117c7565b604082019050919050565b6000602082019050818103600083015261185281611816565b9050919050565b7f45524332303a206d696e7420746f20746865207a65726f206164647265737300600082015250565b600061188f601f83610f94565b915061189a82611859565b602082019050919050565b600060208201905081810360008301526118be81611882565b905091905056fea2646970667358221220f9447448a37d55599551a7a3799cf2f897745b6b2ed3e6841aed29ea96cf526664736f6c634300080d0033",
  "immutableReferences": {},
  "source": "// SPDX-License-Identifier: MIT\npragma solidity ^0.8.0;\n\nimport \"@openzeppelin/contracts/access/Ownable.sol\";\nimport \"./MutualToken.sol\";\nimport \"./MutualEscrowToken.sol\";\nimport \"./UserActivityProposal.sol\";\n\ncontract MutualTokenFactory is Ownable {\n\n    struct ProposalConfig {\n        uint8 acceptedCountLimit;\n        uint8 rejectedCountLimit;\n    }\n\n    struct UserState {\n        address user;\n        string info;\n        bool joined;\n    }\n\n    struct UserProposal {\n        address user;\n        UserActivityProposal proposal;\n        bool exists;\n    }\n\n     MutualToken mutualToken;\n     MutualEscrowToken escrowToken;\n\n     mapping(address => UserState) public userStates;\n\n     mapping(address => UserProposal) public userJoinedProposal;\n\n     ProposalConfig config;\n\n    constructor() {\n        mutualToken = new MutualToken();\n        escrowToken = new MutualEscrowToken();\n        config.acceptedCountLimit = 0;\n        config.rejectedCountLimit = 1;\n    }\n\n    event ProposalReCreated(address contractAddress);\n\n    event ProposalCreated(address contractAddress);\n\n    event ProposalDone(address proposal);\n\n    event ProposalReject(address proposal);\n\n    function join(uint256 amount, string calldata description) public returns(address _proposalAddress) {\n        require(!userStates[msg.sender].joined, \"account had been joined.\");\n\n        if(userJoinedProposal[msg.sender].exists) {\n            emit ProposalReCreated(address(userJoinedProposal[msg.sender].proposal));\n            return address(userJoinedProposal[msg.sender].proposal);\n        \n        }\n\n        UserActivityProposal proposal = new UserActivityProposal(description, amount,  owner(), config.acceptedCountLimit, config.rejectedCountLimit);\n        userJoinedProposal[msg.sender].proposal = proposal;\n\n        emit ProposalCreated(address(proposal));\n        return address(userJoinedProposal[msg.sender].proposal);\n    } \n\n    function accept(address to) public {\n        IUserActivityProposal proposal = IUserActivityProposal(to);\n       IUserActivityProposal.Stage stage = proposal.vote(true);\n       if(stage == IUserActivityProposal.Stage.Done) {\n           uint256 tokenAmount = proposal.getAmount() / 2;\n           uint256 escrowTokenAmount = proposal.getAmount() - tokenAmount;\n\n           mutualToken.mint(proposal.getUser(), tokenAmount);\n           escrowToken.mint(proposal.getUser(), escrowTokenAmount);\n\n           emit ProposalDone(to);\n       }\n    }\n\n    function reject(address to) public returns(IUserActivityProposal.Stage stage) {\n        return IUserActivityProposal(to).vote(false);\n    }\n\n    function getTokenAddress() public view returns (address _address) {\n        return address(mutualToken);\n    }\n\n    function getEscrowTokenAddress() public view returns (address _address) {\n        return address(escrowToken);\n    }\n\n}",
  "sourcePath": "/Users/jonah/SolidityProject/otest/contracts/MutualTokenFactory.sol",
  "compiler": {
    "name": "solc",
    "version": "0.8.13+commit.abaa5c0e.Emscripten.clang"
  },
  "schemaVersion": "3.4.7",
  "updatedAt": "2022-05-05T14:18:25.641Z",
  "networkType": "ethereum",
  "devdoc": {
    "kind": "dev",
    "methods": {
      "owner()": {
        "details": "Returns the address of the current owner."
      },
      "renounceOwnership()": {
        "details": "Leaves the contract without owner. It will not be possible to call `onlyOwner` functions anymore. Can only be called by the current owner. NOTE: Renouncing ownership will leave the contract without an owner, thereby removing any functionality that is only available to the owner."
      },
      "transferOwnership(address)": {
        "details": "Transfers ownership of the contract to a new account (`newOwner`). Can only be called by the current owner."
      }
    },
    "version": 1
  },
  "userdoc": {
    "kind": "user",
    "methods": {},
    "version": 1
  }
}