{
  "contractName": "UserActivityProposal",
  "abi": [
    {
      "inputs": [
        {
          "internalType": "address",
          "name": "_user",
          "type": "address"
        },
        {
          "internalType": "string",
          "name": "_name",
          "type": "string"
        },
        {
          "internalType": "uint256",
          "name": "_amount",
          "type": "uint256"
        },
        {
          "internalType": "address",
          "name": "_manager",
          "type": "address"
        },
        {
          "internalType": "uint8",
          "name": "_acceptedCountsLimit",
          "type": "uint8"
        },
        {
          "internalType": "uint8",
          "name": "_rejectCountsLimit",
          "type": "uint8"
        }
      ],
      "stateMutability": "nonpayable",
      "type": "constructor"
    },
    {
      "anonymous": false,
      "inputs": [
        {
          "indexed": true,
          "internalType": "address",
          "name": "previousOwner",
          "type": "address"
        },
        {
          "indexed": true,
          "internalType": "address",
          "name": "newOwner",
          "type": "address"
        }
      ],
      "name": "OwnershipTransferred",
      "type": "event"
    },
    {
      "inputs": [],
      "name": "acceptedCounts",
      "outputs": [
        {
          "internalType": "uint8",
          "name": "",
          "type": "uint8"
        }
      ],
      "stateMutability": "view",
      "type": "function"
    },
    {
      "inputs": [],
      "name": "acceptedCountsLimit",
      "outputs": [
        {
          "internalType": "uint8",
          "name": "",
          "type": "uint8"
        }
      ],
      "stateMutability": "view",
      "type": "function"
    },
    {
      "inputs": [],
      "name": "amount",
      "outputs": [
        {
          "internalType": "uint256",
          "name": "",
          "type": "uint256"
        }
      ],
      "stateMutability": "view",
      "type": "function"
    },
    {
      "inputs": [],
      "name": "managerAgreed",
      "outputs": [
        {
          "internalType": "bool",
          "name": "",
          "type": "bool"
        }
      ],
      "stateMutability": "view",
      "type": "function"
    },
    {
      "inputs": [],
      "name": "managerVoted",
      "outputs": [
        {
          "internalType": "bool",
          "name": "",
          "type": "bool"
        }
      ],
      "stateMutability": "view",
      "type": "function"
    },
    {
      "inputs": [],
      "name": "name",
      "outputs": [
        {
          "internalType": "string",
          "name": "",
          "type": "string"
        }
      ],
      "stateMutability": "view",
      "type": "function"
    },
    {
      "inputs": [],
      "name": "owner",
      "outputs": [
        {
          "internalType": "address",
          "name": "",
          "type": "address"
        }
      ],
      "stateMutability": "view",
      "type": "function"
    },
    {
      "inputs": [],
      "name": "rejectCounts",
      "outputs": [
        {
          "internalType": "uint8",
          "name": "",
          "type": "uint8"
        }
      ],
      "stateMutability": "view",
      "type": "function"
    },
    {
      "inputs": [],
      "name": "rejectCountsLimit",
      "outputs": [
        {
          "internalType": "uint8",
          "name": "",
          "type": "uint8"
        }
      ],
      "stateMutability": "view",
      "type": "function"
    },
    {
      "inputs": [],
      "name": "renounceOwnership",
      "outputs": [],
      "stateMutability": "nonpayable",
      "type": "function"
    },
    {
      "inputs": [],
      "name": "stage",
      "outputs": [
        {
          "internalType": "enum UserActivityProposal.Stage",
          "name": "",
          "type": "uint8"
        }
      ],
      "stateMutability": "view",
      "type": "function"
    },
    {
      "inputs": [
        {
          "internalType": "address",
          "name": "newOwner",
          "type": "address"
        }
      ],
      "name": "transferOwnership",
      "outputs": [],
      "stateMutability": "nonpayable",
      "type": "function"
    },
    {
      "inputs": [],
      "name": "user",
      "outputs": [
        {
          "internalType": "address",
          "name": "",
          "type": "address"
        }
      ],
      "stateMutability": "view",
      "type": "function"
    },
    {
      "inputs": [
        {
          "internalType": "address",
          "name": "voter",
          "type": "address"
        },
        {
          "internalType": "bool",
          "name": "accepted",
          "type": "bool"
        }
      ],
      "name": "vote",
      "outputs": [
        {
          "internalType": "enum UserActivityProposal.Stage",
          "name": "_stage",
          "type": "uint8"
        }
      ],
      "stateMutability": "nonpayable",
      "type": "function"
    },
    {
      "inputs": [],
      "name": "getStage",
      "outputs": [
        {
          "internalType": "enum UserActivityProposal.Stage",
          "name": "_stage",
          "type": "uint8"
        }
      ],
      "stateMutability": "view",
      "type": "function"
    },
    {
      "inputs": [],
      "name": "getAmount",
      "outputs": [
        {
          "internalType": "uint256",
          "name": "_amount",
          "type": "uint256"
        }
      ],
      "stateMutability": "view",
      "type": "function"
    },
    {
      "inputs": [],
      "name": "getUser",
      "outputs": [
        {
          "internalType": "address",
          "name": "_user",
          "type": "address"
        }
      ],
      "stateMutability": "view",
      "type": "function"
    },
    {
      "inputs": [],
      "name": "getInfo",
      "outputs": [
        {
          "internalType": "string",
          "name": "_info",
          "type": "string"
        }
      ],
      "stateMutability": "view",
      "type": "function"
    }
  ],
  "bytecode": "0x60806040523480156200001157600080fd5b50604051620019e4380380620019e4833981810160405281019062000037919062000560565b620000576200004b6200016960201b60201c565b6200017160201b60201c565b82600160006101000a81548173ffffffffffffffffffffffffffffffffffffffff021916908373ffffffffffffffffffffffffffffffffffffffff16021790555085600260006101000a81548173ffffffffffffffffffffffffffffffffffffffff021916908373ffffffffffffffffffffffffffffffffffffffff1602179055508460039080519060200190620000f192919062000235565b5081600160146101000a81548160ff021916908360ff16021790555080600160156101000a81548160ff021916908360ff160217905550836004819055506000600560006101000a81548160ff021916908360028111156200015857620001576200061b565b5b0217905550505050505050620006ae565b600033905090565b60008060009054906101000a900473ffffffffffffffffffffffffffffffffffffffff169050816000806101000a81548173ffffffffffffffffffffffffffffffffffffffff021916908373ffffffffffffffffffffffffffffffffffffffff1602179055508173ffffffffffffffffffffffffffffffffffffffff168173ffffffffffffffffffffffffffffffffffffffff167f8be0079c531659141344cd1fd0a4f28419497f9722a3daafe3b4186f6b6457e060405160405180910390a35050565b828054620002439062000679565b90600052602060002090601f016020900481019282620002675760008555620002b3565b82601f106200028257805160ff1916838001178555620002b3565b82800160010185558215620002b3579182015b82811115620002b257825182559160200191906001019062000295565b5b509050620002c29190620002c6565b5090565b5b80821115620002e1576000816000905550600101620002c7565b5090565b6000604051905090565b600080fd5b600080fd5b600073ffffffffffffffffffffffffffffffffffffffff82169050919050565b60006200032682620002f9565b9050919050565b620003388162000319565b81146200034457600080fd5b50565b60008151905062000358816200032d565b92915050565b600080fd5b600080fd5b6000601f19601f8301169050919050565b7f4e487b7100000000000000000000000000000000000000000000000000000000600052604160045260246000fd5b620003b38262000368565b810181811067ffffffffffffffff82111715620003d557620003d462000379565b5b80604052505050565b6000620003ea620002e5565b9050620003f88282620003a8565b919050565b600067ffffffffffffffff8211156200041b576200041a62000379565b5b620004268262000368565b9050602081019050919050565b60005b838110156200045357808201518184015260208101905062000436565b8381111562000463576000848401525b50505050565b6000620004806200047a84620003fd565b620003de565b9050828152602081018484840111156200049f576200049e62000363565b5b620004ac84828562000433565b509392505050565b600082601f830112620004cc57620004cb6200035e565b5b8151620004de84826020860162000469565b91505092915050565b6000819050919050565b620004fc81620004e7565b81146200050857600080fd5b50565b6000815190506200051c81620004f1565b92915050565b600060ff82169050919050565b6200053a8162000522565b81146200054657600080fd5b50565b6000815190506200055a816200052f565b92915050565b60008060008060008060c0878903121562000580576200057f620002ef565b5b60006200059089828a0162000347565b965050602087015167ffffffffffffffff811115620005b457620005b3620002f4565b5b620005c289828a01620004b4565b9550506040620005d589828a016200050b565b9450506060620005e889828a0162000347565b9350506080620005fb89828a0162000549565b92505060a06200060e89828a0162000549565b9150509295509295509295565b7f4e487b7100000000000000000000000000000000000000000000000000000000600052602160045260246000fd5b7f4e487b7100000000000000000000000000000000000000000000000000000000600052602260045260246000fd5b600060028204905060018216806200069257607f821691505b602082108103620006a857620006a76200064a565b5b50919050565b61132680620006be6000396000f3fe608060405234801561001057600080fd5b50600436106101165760003560e01c806386c1e7cb116100a2578063c040e6b811610071578063c040e6b81461029f578063c527290d146102bd578063d321fe29146102db578063f2fde38b146102f9578063fcaa76641461031557610116565b806386c1e7cb146102155780638da5cb5b14610233578063aa8c217c14610251578063bd041c4d1461026f57610116565b806353b60897116100e957806353b60897146101935780635a9b0b89146101b1578063644cd3c1146101cf578063715018a6146101ed578063832880e7146101f757610116565b806306fdde031461011b5780631b86bede14610139578063409e1f85146101575780634f8632ba14610175575b600080fd5b610123610333565b6040516101309190610dd9565b60405180910390f35b6101416103c1565b60405161014e9190610e17565b60405180910390f35b61015f6103d4565b60405161016c9190610e17565b60405180910390f35b61017d6103e7565b60405161018a9190610e73565b60405180910390f35b61019b61040d565b6040516101a89190610ea9565b60405180910390f35b6101b9610420565b6040516101c69190610dd9565b60405180910390f35b6101d76104b2565b6040516101e49190610e17565b60405180910390f35b6101f56104c5565b005b6101ff61054d565b60405161020c9190610e73565b60405180910390f35b61021d610577565b60405161022a9190610ea9565b60405180910390f35b61023b61058a565b6040516102489190610e73565b60405180910390f35b6102596105b3565b6040516102669190610edd565b60405180910390f35b61028960048036038101906102849190610f55565b6105b9565b604051610296919061100c565b60405180910390f35b6102a7610b36565b6040516102b4919061100c565b60405180910390f35b6102c5610b49565b6040516102d29190610e17565b60405180910390f35b6102e3610b5c565b6040516102f09190610edd565b60405180910390f35b610313600480360381019061030e9190611027565b610b66565b005b61031d610c5d565b60405161032a919061100c565b60405180910390f35b6003805461034090611083565b80601f016020809104026020016040519081016040528092919081815260200182805461036c90611083565b80156103b95780601f1061038e576101008083540402835291602001916103b9565b820191906000526020600020905b81548152906001019060200180831161039c57829003601f168201915b505050505081565b600560049054906101000a900460ff1681565b600160149054906101000a900460ff1681565b600260009054906101000a900473ffffffffffffffffffffffffffffffffffffffff1681565b600560029054906101000a900460ff1681565b60606003805461042f90611083565b80601f016020809104026020016040519081016040528092919081815260200182805461045b90611083565b80156104a85780601f1061047d576101008083540402835291602001916104a8565b820191906000526020600020905b81548152906001019060200180831161048b57829003601f168201915b5050505050905090565b600160159054906101000a900460ff1681565b6104cd610c74565b73ffffffffffffffffffffffffffffffffffffffff166104eb61058a565b73ffffffffffffffffffffffffffffffffffffffff1614610541576040517f08c379a000000000000000000000000000000000000000000000000000000000815260040161053890611100565b60405180910390fd5b61054b6000610c7c565b565b6000600260009054906101000a900473ffffffffffffffffffffffffffffffffffffffff16905090565b600560019054906101000a900460ff1681565b60008060009054906101000a900473ffffffffffffffffffffffffffffffffffffffff16905090565b60045481565b60006105c3610c74565b73ffffffffffffffffffffffffffffffffffffffff166105e161058a565b73ffffffffffffffffffffffffffffffffffffffff1614610637576040517f08c379a000000000000000000000000000000000000000000000000000000000815260040161062e90611100565b60405180910390fd5b600080600281111561064c5761064b610f95565b5b600560009054906101000a900460ff16600281111561066e5761066d610f95565b5b146106ae576040517f08c379a00000000000000000000000000000000000000000000000000000000081526004016106a59061116c565b60405180910390fd5b600660008573ffffffffffffffffffffffffffffffffffffffff1673ffffffffffffffffffffffffffffffffffffffff16815260200190815260200160002060000160149054906101000a900460ff1615806107575750600160009054906101000a900473ffffffffffffffffffffffffffffffffffffffff1673ffffffffffffffffffffffffffffffffffffffff168473ffffffffffffffffffffffffffffffffffffffff16145b610796576040517f08c379a000000000000000000000000000000000000000000000000000000000815260040161078d906111d8565b60405180910390fd5b600160009054906101000a900473ffffffffffffffffffffffffffffffffffffffff1673ffffffffffffffffffffffffffffffffffffffff168473ffffffffffffffffffffffffffffffffffffffff1603610825576001600560026101000a81548160ff02191690831515021790555082600560016101000a81548160ff021916908315150217905550610a0a565b821561091c576001600560039054906101000a900460ff166108479190611227565b600560036101000a81548160ff021916908360ff1602179055506001600660008673ffffffffffffffffffffffffffffffffffffffff1673ffffffffffffffffffffffffffffffffffffffff16815260200190815260200160002060000160146101000a81548160ff0219169083151502179055506001600660008673ffffffffffffffffffffffffffffffffffffffff1673ffffffffffffffffffffffffffffffffffffffff16815260200190815260200160002060000160156101000a81548160ff021916908315150217905550610a09565b6001600560049054906101000a900460ff166109389190611227565b600560036101000a81548160ff021916908360ff1602179055506001600660008673ffffffffffffffffffffffffffffffffffffffff1673ffffffffffffffffffffffffffffffffffffffff16815260200190815260200160002060000160146101000a81548160ff0219169083151502179055506000600660008673ffffffffffffffffffffffffffffffffffffffff1673ffffffffffffffffffffffffffffffffffffffff16815260200190815260200160002060000160156101000a81548160ff0219169083151502179055505b5b600560029054906101000a900460ff168015610a325750600560019054906101000a900460ff165b8015610a625750600160149054906101000a900460ff1660ff16600560039054906101000a900460ff1660ff1610155b15610a93576001600560006101000a81548160ff02191690836002811115610a8d57610a8c610f95565b5b02179055505b600560029054906101000a900460ff168015610abc5750600560019054906101000a900460ff16155b8015610aec5750600160159054906101000a900460ff1660ff16600560049054906101000a900460ff1660ff1610155b15610b1d576002600560006101000a81548160ff02191690836002811115610b1757610b16610f95565b5b02179055505b600560009054906101000a900460ff1691505092915050565b600560009054906101000a900460ff1681565b600560039054906101000a900460ff1681565b6000600454905090565b610b6e610c74565b73ffffffffffffffffffffffffffffffffffffffff16610b8c61058a565b73ffffffffffffffffffffffffffffffffffffffff1614610be2576040517f08c379a0000000000000000000000000000000000000000000000000000000008152600401610bd990611100565b60405180910390fd5b600073ffffffffffffffffffffffffffffffffffffffff168173ffffffffffffffffffffffffffffffffffffffff1603610c51576040517f08c379a0000000000000000000000000000000000000000000000000000000008152600401610c48906112d0565b60405180910390fd5b610c5a81610c7c565b50565b6000600560009054906101000a900460ff16905090565b600033905090565b60008060009054906101000a900473ffffffffffffffffffffffffffffffffffffffff169050816000806101000a81548173ffffffffffffffffffffffffffffffffffffffff021916908373ffffffffffffffffffffffffffffffffffffffff1602179055508173ffffffffffffffffffffffffffffffffffffffff168173ffffffffffffffffffffffffffffffffffffffff167f8be0079c531659141344cd1fd0a4f28419497f9722a3daafe3b4186f6b6457e060405160405180910390a35050565b600081519050919050565b600082825260208201905092915050565b60005b83811015610d7a578082015181840152602081019050610d5f565b83811115610d89576000848401525b50505050565b6000601f19601f8301169050919050565b6000610dab82610d40565b610db58185610d4b565b9350610dc5818560208601610d5c565b610dce81610d8f565b840191505092915050565b60006020820190508181036000830152610df38184610da0565b905092915050565b600060ff82169050919050565b610e1181610dfb565b82525050565b6000602082019050610e2c6000830184610e08565b92915050565b600073ffffffffffffffffffffffffffffffffffffffff82169050919050565b6000610e5d82610e32565b9050919050565b610e6d81610e52565b82525050565b6000602082019050610e886000830184610e64565b92915050565b60008115159050919050565b610ea381610e8e565b82525050565b6000602082019050610ebe6000830184610e9a565b92915050565b6000819050919050565b610ed781610ec4565b82525050565b6000602082019050610ef26000830184610ece565b92915050565b600080fd5b610f0681610e52565b8114610f1157600080fd5b50565b600081359050610f2381610efd565b92915050565b610f3281610e8e565b8114610f3d57600080fd5b50565b600081359050610f4f81610f29565b92915050565b60008060408385031215610f6c57610f6b610ef8565b5b6000610f7a85828601610f14565b9250506020610f8b85828601610f40565b9150509250929050565b7f4e487b7100000000000000000000000000000000000000000000000000000000600052602160045260246000fd5b60038110610fd557610fd4610f95565b5b50565b6000819050610fe682610fc4565b919050565b6000610ff682610fd8565b9050919050565b61100681610feb565b82525050565b60006020820190506110216000830184610ffd565b92915050565b60006020828403121561103d5761103c610ef8565b5b600061104b84828501610f14565b91505092915050565b7f4e487b7100000000000000000000000000000000000000000000000000000000600052602260045260246000fd5b6000600282049050600182168061109b57607f821691505b6020821081036110ae576110ad611054565b5b50919050565b7f4f776e61626c653a2063616c6c6572206973206e6f7420746865206f776e6572600082015250565b60006110ea602083610d4b565b91506110f5826110b4565b602082019050919050565b60006020820190508181036000830152611119816110dd565b9050919050565b7f63757272656e742073746167652063616e206e6f74206f706572617465000000600082015250565b6000611156601d83610d4b565b915061116182611120565b602082019050919050565b6000602082019050818103600083015261118581611149565b9050919050565b7f7573657220686173206265656e20766f7465642e000000000000000000000000600082015250565b60006111c2601483610d4b565b91506111cd8261118c565b602082019050919050565b600060208201905081810360008301526111f1816111b5565b9050919050565b7f4e487b7100000000000000000000000000000000000000000000000000000000600052601160045260246000fd5b600061123282610dfb565b915061123d83610dfb565b92508260ff03821115611253576112526111f8565b5b828201905092915050565b7f4f776e61626c653a206e6577206f776e657220697320746865207a65726f206160008201527f6464726573730000000000000000000000000000000000000000000000000000602082015250565b60006112ba602683610d4b565b91506112c58261125e565b604082019050919050565b600060208201905081810360008301526112e9816112ad565b905091905056fea2646970667358221220ee6065086945257695c7cbf00118d055527604cba98683a52b7a2aecc7a703be64736f6c634300080d0033",
  "immutableReferences": {},
  "source": "// SPDX-License-Identifier: MIT\npragma solidity ^0.8.0;\n\nimport \"@openzeppelin/contracts/access/Ownable.sol\";\n\ncontract UserActivityProposal is Ownable {\n\n    enum Stage {\n        Voted, Done, Reject\n    }\n\n    struct Vote {\n        address user;\n        bool voted;\n        bool accepted;\n    }\n\n    address manager;\n    uint8 public acceptedCountsLimit;\n    uint8 public rejectCountsLimit;\n    address public user;\n    string public name;\n    uint256 public amount;\n    Stage public stage;\n    \n    bool public managerAgreed;\n    bool public managerVoted;\n    uint8 public acceptedCounts;\n    uint8 public rejectCounts;\n\n\n    mapping(address => Vote) voters;\n\n    modifier onlyStage(Stage _stage) {\n        require(stage == _stage, \"current stage can not operate\");\n        _;\n    }\n\n    constructor(address _user, string memory _name, uint256 _amount, address _manager, uint8 _acceptedCountsLimit, uint8 _rejectCountsLimit) Ownable(){\n        manager = _manager;\n        user=_user;\n        name = _name;\n        acceptedCountsLimit = _acceptedCountsLimit;\n        rejectCountsLimit = _rejectCountsLimit;\n        amount = _amount;\n        stage = Stage.Voted;\n    }\n\n    function vote(address voter, bool accepted) public onlyOwner() onlyStage(Stage.Voted) returns(Stage _stage) {\n        require(!voters[voter].voted || voter == manager, \"user has been voted.\");\n\n        if(voter == manager) {\n            managerVoted = true;\n            managerAgreed = accepted;\n        } else if(accepted) {\n            acceptedCounts = acceptedCounts + 1;\n            voters[voter].voted = true;\n            voters[voter].accepted = true;\n        } else {\n            acceptedCounts = rejectCounts + 1;\n            voters[voter].voted = true;\n            voters[voter].accepted = false;\n        }\n\n        if(managerVoted && managerAgreed && acceptedCounts >= acceptedCountsLimit) {\n            stage = Stage.Done;\n        }\n\n        if(managerVoted && !managerAgreed && rejectCounts >= rejectCountsLimit) {\n            stage = Stage.Reject;\n        }\n\n        \n        return stage;\n    }\n\n\n    function getStage() public view returns (Stage _stage) {\n        return stage;\n    }\n\n     function getAmount() public view returns (uint256 _amount) {\n         return amount;\n     }\n\n     function getUser() public view returns (address _user) {\n         return user;\n     }\n\n     function getInfo() public view returns(string memory _info) {\n         return name;\n     }\n\n}",
  "sourcePath": "/Users/jonah/SolidityProject/otest/contracts/UserActivityProposal.sol",
  "compiler": {
    "name": "solc",
    "version": "0.8.13+commit.abaa5c0e.Emscripten.clang"
  },
  "schemaVersion": "3.4.7",
  "updatedAt": "2022-05-05T16:18:13.830Z",
  "devdoc": {
    "kind": "dev",
    "methods": {
      "owner()": {
        "details": "Returns the address of the current owner."
      },
      "renounceOwnership()": {
        "details": "Leaves the contract without owner. It will not be possible to call `onlyOwner` functions anymore. Can only be called by the current owner. NOTE: Renouncing ownership will leave the contract without an owner, thereby removing any functionality that is only available to the owner."
      },
      "transferOwnership(address)": {
        "details": "Transfers ownership of the contract to a new account (`newOwner`). Can only be called by the current owner."
      }
    },
    "version": 1
  },
  "userdoc": {
    "kind": "user",
    "methods": {},
    "version": 1
  }
}