{
  "contractName": "UserActivityProposal",
  "abi": [
    {
      "inputs": [
        {
          "internalType": "string",
          "name": "_name",
          "type": "string"
        },
        {
          "internalType": "uint256",
          "name": "_amount",
          "type": "uint256"
        },
        {
          "internalType": "address",
          "name": "_manager",
          "type": "address"
        },
        {
          "internalType": "uint8",
          "name": "_acceptedCountsLimit",
          "type": "uint8"
        },
        {
          "internalType": "uint8",
          "name": "_rejectCountsLimit",
          "type": "uint8"
        }
      ],
      "stateMutability": "nonpayable",
      "type": "constructor"
    },
    {
      "inputs": [],
      "name": "acceptedCounts",
      "outputs": [
        {
          "internalType": "uint8",
          "name": "",
          "type": "uint8"
        }
      ],
      "stateMutability": "view",
      "type": "function"
    },
    {
      "inputs": [],
      "name": "acceptedCountsLimit",
      "outputs": [
        {
          "internalType": "uint8",
          "name": "",
          "type": "uint8"
        }
      ],
      "stateMutability": "view",
      "type": "function"
    },
    {
      "inputs": [],
      "name": "amount",
      "outputs": [
        {
          "internalType": "uint256",
          "name": "",
          "type": "uint256"
        }
      ],
      "stateMutability": "view",
      "type": "function"
    },
    {
      "inputs": [],
      "name": "managerAgreed",
      "outputs": [
        {
          "internalType": "bool",
          "name": "",
          "type": "bool"
        }
      ],
      "stateMutability": "view",
      "type": "function"
    },
    {
      "inputs": [],
      "name": "name",
      "outputs": [
        {
          "internalType": "string",
          "name": "",
          "type": "string"
        }
      ],
      "stateMutability": "view",
      "type": "function"
    },
    {
      "inputs": [],
      "name": "rejectCounts",
      "outputs": [
        {
          "internalType": "uint8",
          "name": "",
          "type": "uint8"
        }
      ],
      "stateMutability": "view",
      "type": "function"
    },
    {
      "inputs": [],
      "name": "rejectCountsLimit",
      "outputs": [
        {
          "internalType": "uint8",
          "name": "",
          "type": "uint8"
        }
      ],
      "stateMutability": "view",
      "type": "function"
    },
    {
      "inputs": [],
      "name": "stage",
      "outputs": [
        {
          "internalType": "enum IUserActivityProposal.Stage",
          "name": "",
          "type": "uint8"
        }
      ],
      "stateMutability": "view",
      "type": "function"
    },
    {
      "inputs": [],
      "name": "user",
      "outputs": [
        {
          "internalType": "address",
          "name": "",
          "type": "address"
        }
      ],
      "stateMutability": "view",
      "type": "function"
    },
    {
      "inputs": [
        {
          "internalType": "bool",
          "name": "accepted",
          "type": "bool"
        }
      ],
      "name": "vote",
      "outputs": [
        {
          "internalType": "enum IUserActivityProposal.Stage",
          "name": "_stage",
          "type": "uint8"
        }
      ],
      "stateMutability": "nonpayable",
      "type": "function"
    },
    {
      "inputs": [],
      "name": "getStage",
      "outputs": [
        {
          "internalType": "enum IUserActivityProposal.Stage",
          "name": "_stage",
          "type": "uint8"
        }
      ],
      "stateMutability": "view",
      "type": "function"
    },
    {
      "inputs": [],
      "name": "getAmount",
      "outputs": [
        {
          "internalType": "uint256",
          "name": "_amount",
          "type": "uint256"
        }
      ],
      "stateMutability": "view",
      "type": "function"
    },
    {
      "inputs": [],
      "name": "getUser",
      "outputs": [
        {
          "internalType": "address",
          "name": "_user",
          "type": "address"
        }
      ],
      "stateMutability": "view",
      "type": "function"
    }
  ],
  "bytecode": "0x60806040523480156200001157600080fd5b50604051620010e9380380620010e9833981810160405281019062000037919062000444565b826000806101000a81548173ffffffffffffffffffffffffffffffffffffffff021916908373ffffffffffffffffffffffffffffffffffffffff16021790555033600160006101000a81548173ffffffffffffffffffffffffffffffffffffffff021916908373ffffffffffffffffffffffffffffffffffffffff1602179055508460029080519060200190620000d092919062000119565b5081600060146101000a81548160ff021916908360ff16021790555080600060156101000a81548160ff021916908360ff1602179055508360038190555050505050506200054f565b82805462000127906200051a565b90600052602060002090601f0160209004810192826200014b576000855562000197565b82601f106200016657805160ff191683800117855562000197565b8280016001018555821562000197579182015b828111156200019657825182559160200191906001019062000179565b5b509050620001a69190620001aa565b5090565b5b80821115620001c5576000816000905550600101620001ab565b5090565b6000604051905090565b600080fd5b600080fd5b600080fd5b600080fd5b6000601f19601f8301169050919050565b7f4e487b7100000000000000000000000000000000000000000000000000000000600052604160045260246000fd5b6200023282620001e7565b810181811067ffffffffffffffff82111715620002545762000253620001f8565b5b80604052505050565b600062000269620001c9565b905062000277828262000227565b919050565b600067ffffffffffffffff8211156200029a5762000299620001f8565b5b620002a582620001e7565b9050602081019050919050565b60005b83811015620002d2578082015181840152602081019050620002b5565b83811115620002e2576000848401525b50505050565b6000620002ff620002f9846200027c565b6200025d565b9050828152602081018484840111156200031e576200031d620001e2565b5b6200032b848285620002b2565b509392505050565b600082601f8301126200034b576200034a620001dd565b5b81516200035d848260208601620002e8565b91505092915050565b6000819050919050565b6200037b8162000366565b81146200038757600080fd5b50565b6000815190506200039b8162000370565b92915050565b600073ffffffffffffffffffffffffffffffffffffffff82169050919050565b6000620003ce82620003a1565b9050919050565b620003e081620003c1565b8114620003ec57600080fd5b50565b6000815190506200040081620003d5565b92915050565b600060ff82169050919050565b6200041e8162000406565b81146200042a57600080fd5b50565b6000815190506200043e8162000413565b92915050565b600080600080600060a08688031215620004635762000462620001d3565b5b600086015167ffffffffffffffff811115620004845762000483620001d8565b5b620004928882890162000333565b9550506020620004a5888289016200038a565b9450506040620004b888828901620003ef565b9350506060620004cb888289016200042d565b9250506080620004de888289016200042d565b9150509295509295909350565b7f4e487b7100000000000000000000000000000000000000000000000000000000600052602260045260246000fd5b600060028204905060018216806200053357607f821691505b602082108103620005495762000548620004eb565b5b50919050565b610b8a806200055f6000396000f3fe608060405234801561001057600080fd5b50600436106100cf5760003560e01c8063832880e71161008c578063c040e6b811610066578063c040e6b8146101f4578063c527290d14610212578063d321fe2914610230578063fcaa76641461024e576100cf565b8063832880e71461019a57806386c1e7cb146101b8578063aa8c217c146101d6576100cf565b806306fdde03146100d45780631b86bede146100f2578063409e1f85146101105780634b9f5c981461012e5780634f8632ba1461015e578063644cd3c11461017c575b600080fd5b6100dc61026c565b6040516100e9919061087f565b60405180910390f35b6100fa6102fa565b60405161010791906108bd565b60405180910390f35b61011861030d565b60405161012591906108bd565b60405180910390f35b61014860048036038101906101439190610915565b610320565b60405161015591906109b9565b60405180910390f35b610166610723565b6040516101739190610a15565b60405180910390f35b610184610749565b60405161019191906108bd565b60405180910390f35b6101a261075c565b6040516101af9190610a15565b60405180910390f35b6101c0610786565b6040516101cd9190610a3f565b60405180910390f35b6101de610799565b6040516101eb9190610a73565b60405180910390f35b6101fc61079f565b60405161020991906109b9565b60405180910390f35b61021a6107b2565b60405161022791906108bd565b60405180910390f35b6102386107c5565b6040516102459190610a73565b60405180910390f35b6102566107cf565b60405161026391906109b9565b60405180910390f35b6002805461027990610abd565b80601f01602080910402602001604051908101604052809291908181526020018280546102a590610abd565b80156102f25780601f106102c7576101008083540402835291602001916102f2565b820191906000526020600020905b8154815290600101906020018083116102d557829003601f168201915b505050505081565b600460039054906101000a900460ff1681565b600060149054906101000a900460ff1681565b6000600560003373ffffffffffffffffffffffffffffffffffffffff1673ffffffffffffffffffffffffffffffffffffffff16815260200190815260200160002060000160149054906101000a900460ff1615806103c9575060008054906101000a900473ffffffffffffffffffffffffffffffffffffffff1673ffffffffffffffffffffffffffffffffffffffff163373ffffffffffffffffffffffffffffffffffffffff16145b6103d257600080fd5b60008054906101000a900473ffffffffffffffffffffffffffffffffffffffff1673ffffffffffffffffffffffffffffffffffffffff163373ffffffffffffffffffffffffffffffffffffffff1603610445576001600460016101000a81548160ff02191690831515021790555061062a565b811561053c576001600460029054906101000a900460ff166104679190610b1d565b600460026101000a81548160ff021916908360ff1602179055506001600560003373ffffffffffffffffffffffffffffffffffffffff1673ffffffffffffffffffffffffffffffffffffffff16815260200190815260200160002060000160146101000a81548160ff0219169083151502179055506001600560003373ffffffffffffffffffffffffffffffffffffffff1673ffffffffffffffffffffffffffffffffffffffff16815260200190815260200160002060000160156101000a81548160ff021916908315150217905550610629565b6001600460029054906101000a900460ff166105589190610b1d565b600460026101000a81548160ff021916908360ff1602179055506001600560003373ffffffffffffffffffffffffffffffffffffffff1673ffffffffffffffffffffffffffffffffffffffff16815260200190815260200160002060000160146101000a81548160ff0219169083151502179055506001600560003373ffffffffffffffffffffffffffffffffffffffff1673ffffffffffffffffffffffffffffffffffffffff16815260200190815260200160002060000160156101000a81548160ff0219169083151502179055505b5b600460019054906101000a900460ff16801561066a5750600060149054906101000a900460ff1660ff16600460029054906101000a900460ff1660ff1610155b1561069b576002600460006101000a81548160ff0219169083600381111561069557610694610942565b5b02179055505b600460019054906101000a900460ff1615806106db5750600060159054906101000a900460ff1660ff16600460039054906101000a900460ff1660ff1610155b1561070c576003600460006101000a81548160ff0219169083600381111561070657610705610942565b5b02179055505b600460009054906101000a900460ff169050919050565b600160009054906101000a900473ffffffffffffffffffffffffffffffffffffffff1681565b600060159054906101000a900460ff1681565b6000600160009054906101000a900473ffffffffffffffffffffffffffffffffffffffff16905090565b600460019054906101000a900460ff1681565b60035481565b600460009054906101000a900460ff1681565b600460029054906101000a900460ff1681565b6000600354905090565b6000600460009054906101000a900460ff16905090565b600081519050919050565b600082825260208201905092915050565b60005b83811015610820578082015181840152602081019050610805565b8381111561082f576000848401525b50505050565b6000601f19601f8301169050919050565b6000610851826107e6565b61085b81856107f1565b935061086b818560208601610802565b61087481610835565b840191505092915050565b600060208201905081810360008301526108998184610846565b905092915050565b600060ff82169050919050565b6108b7816108a1565b82525050565b60006020820190506108d260008301846108ae565b92915050565b600080fd5b60008115159050919050565b6108f2816108dd565b81146108fd57600080fd5b50565b60008135905061090f816108e9565b92915050565b60006020828403121561092b5761092a6108d8565b5b600061093984828501610900565b91505092915050565b7f4e487b7100000000000000000000000000000000000000000000000000000000600052602160045260246000fd5b6004811061098257610981610942565b5b50565b600081905061099382610971565b919050565b60006109a382610985565b9050919050565b6109b381610998565b82525050565b60006020820190506109ce60008301846109aa565b92915050565b600073ffffffffffffffffffffffffffffffffffffffff82169050919050565b60006109ff826109d4565b9050919050565b610a0f816109f4565b82525050565b6000602082019050610a2a6000830184610a06565b92915050565b610a39816108dd565b82525050565b6000602082019050610a546000830184610a30565b92915050565b6000819050919050565b610a6d81610a5a565b82525050565b6000602082019050610a886000830184610a64565b92915050565b7f4e487b7100000000000000000000000000000000000000000000000000000000600052602260045260246000fd5b60006002820490506001821680610ad557607f821691505b602082108103610ae857610ae7610a8e565b5b50919050565b7f4e487b7100000000000000000000000000000000000000000000000000000000600052601160045260246000fd5b6000610b28826108a1565b9150610b33836108a1565b92508260ff03821115610b4957610b48610aee565b5b82820190509291505056fea2646970667358221220ecb31528511808233b5a08da81ce604b8551fb8059bd1c7ad37115102181975364736f6c634300080d0033",
  "immutableReferences": {},
  "source": "// SPDX-License-Identifier: MIT\npragma solidity ^0.8.0;\n\n\ninterface IUserActivityProposal {\n    enum Stage {\n        Init, Voted, Done, Reject\n    }\n\n    function vote(bool accepted) external returns(Stage _stage);\n\n    function getUser() external view returns(address _address);\n    function getAmount() external view returns (uint256 amount);\n}\n\ncontract UserActivityProposal is IUserActivityProposal {\n\n    struct Vote {\n        address user;\n        bool voted;\n        bool accepted;\n    }\n\n    address manager;\n    uint8 public acceptedCountsLimit;\n    uint8 public rejectCountsLimit;\n    address public user;\n    string public name;\n    uint256 public amount;\n    Stage public stage;\n    \n    bool public managerAgreed;\n    uint8 public acceptedCounts;\n    uint8 public rejectCounts;\n\n\n    mapping(address => Vote) voters;\n\n\n\n    modifier onlyManager() {\n        require(msg.sender == manager, \"only manager can operate.\");\n        _;\n    }\n\n    modifier onlyStage(Stage _stage) {\n        require(stage == _stage, \"current stage can not operate\");\n        _;\n    }\n\n    constructor(string memory _name, uint256 _amount, address _manager, uint8 _acceptedCountsLimit, uint8 _rejectCountsLimit) {\n        manager = _manager;\n        user = msg.sender;\n        name = _name;\n        acceptedCountsLimit = _acceptedCountsLimit;\n        rejectCountsLimit = _rejectCountsLimit;\n        amount = _amount;\n    }\n\n    function vote(bool accepted) external override returns(Stage _stage) {\n        require(!voters[msg.sender].voted || msg.sender == manager);\n\n        if(msg.sender == manager) {\n            managerAgreed = true;\n        } else if(accepted) {\n            acceptedCounts = acceptedCounts + 1;\n            voters[msg.sender].voted = true;\n            voters[msg.sender].accepted = true;\n        } else {\n            acceptedCounts = acceptedCounts + 1;\n            voters[msg.sender].voted = true;\n            voters[msg.sender].accepted = true;\n        }\n\n        if(managerAgreed && acceptedCounts >= acceptedCountsLimit) {\n            stage = Stage.Done;\n        }\n\n        if(!managerAgreed || rejectCounts >= rejectCountsLimit) {\n            stage = Stage.Reject;\n        }\n\n        \n        return stage;\n    }\n\n\n    function getStage() public view returns (Stage _stage) {\n        return stage;\n    }\n\n     function getAmount() public view returns (uint256 _amount) {\n         return amount;\n     }\n\n     function getUser() public view returns (address _user) {\n         return user;\n     }\n\n}",
  "sourcePath": "/Users/jonah/SolidityProject/otest/contracts/UserActivityProposal.sol",
  "compiler": {
    "name": "solc",
    "version": "0.8.13+commit.abaa5c0e.Emscripten.clang"
  },
  "schemaVersion": "3.4.7",
  "updatedAt": "2022-05-05T14:08:26.163Z",
  "devdoc": {
    "kind": "dev",
    "methods": {},
    "version": 1
  },
  "userdoc": {
    "kind": "user",
    "methods": {},
    "version": 1
  }
}